{
  "contractName": "SimpleStorage",
  "abi": [
    {
      "constant": true,
      "inputs": [
        {
          "name": "",
          "type": "uint256"
        },
        {
          "name": "",
          "type": "address"
        }
      ],
      "name": "has_cashed_out_player1_bet",
      "outputs": [
        {
          "name": "",
          "type": "bool"
        }
      ],
      "payable": false,
      "stateMutability": "view",
      "type": "function"
    },
    {
      "constant": true,
      "inputs": [
        {
          "name": "",
          "type": "uint256"
        },
        {
          "name": "",
          "type": "address"
        }
      ],
      "name": "player1_bets",
      "outputs": [
        {
          "name": "",
          "type": "uint256"
        }
      ],
      "payable": false,
      "stateMutability": "view",
      "type": "function"
    },
    {
      "constant": true,
      "inputs": [],
      "name": "money_match_count",
      "outputs": [
        {
          "name": "",
          "type": "uint256"
        }
      ],
      "payable": false,
      "stateMutability": "view",
      "type": "function"
    },
    {
      "constant": true,
      "inputs": [
        {
          "name": "",
          "type": "uint256"
        }
      ],
      "name": "player2_has_cashed_out",
      "outputs": [
        {
          "name": "",
          "type": "bool"
        }
      ],
      "payable": false,
      "stateMutability": "view",
      "type": "function"
    },
    {
      "constant": true,
      "inputs": [
        {
          "name": "",
          "type": "uint256"
        },
        {
          "name": "",
          "type": "address"
        }
      ],
      "name": "player2_bets",
      "outputs": [
        {
          "name": "",
          "type": "uint256"
        }
      ],
      "payable": false,
      "stateMutability": "view",
      "type": "function"
    },
    {
      "constant": true,
      "inputs": [
        {
          "name": "",
          "type": "uint256"
        }
      ],
      "name": "host_has_cashed_out",
      "outputs": [
        {
          "name": "",
          "type": "bool"
        }
      ],
      "payable": false,
      "stateMutability": "view",
      "type": "function"
    },
    {
      "constant": true,
      "inputs": [
        {
          "name": "",
          "type": "uint256"
        }
      ],
      "name": "player1_has_cashed_out",
      "outputs": [
        {
          "name": "",
          "type": "bool"
        }
      ],
      "payable": false,
      "stateMutability": "view",
      "type": "function"
    },
    {
      "constant": true,
      "inputs": [
        {
          "name": "",
          "type": "uint256"
        },
        {
          "name": "",
          "type": "address"
        }
      ],
      "name": "has_cashed_out_player2_bet",
      "outputs": [
        {
          "name": "",
          "type": "bool"
        }
      ],
      "payable": false,
      "stateMutability": "view",
      "type": "function"
    },
    {
      "constant": true,
      "inputs": [
        {
          "name": "",
          "type": "uint256"
        }
      ],
      "name": "money_matches",
      "outputs": [
        {
          "name": "player1_name",
          "type": "bytes32"
        },
        {
          "name": "player2_name",
          "type": "bytes32"
        },
        {
          "name": "player1_addr",
          "type": "address"
        },
        {
          "name": "player2_addr",
          "type": "address"
        },
        {
          "name": "host_addr",
          "type": "address"
        },
        {
          "name": "winner_cut_percentage",
          "type": "uint8"
        },
        {
          "name": "host_cut_percentage",
          "type": "uint8"
        },
        {
          "name": "summary",
          "type": "string"
        },
        {
          "name": "image_ipfs_hash",
          "type": "string"
        },
        {
          "name": "state",
          "type": "uint8"
        },
        {
          "name": "player1_pot",
          "type": "uint256"
        },
        {
          "name": "player2_pot",
          "type": "uint256"
        }
      ],
      "payable": false,
      "stateMutability": "view",
      "type": "function"
    },
    {
      "anonymous": false,
      "inputs": [
        {
          "indexed": false,
          "name": "id",
          "type": "uint256"
        },
        {
          "indexed": false,
          "name": "player1_name",
          "type": "bytes32"
        },
        {
          "indexed": false,
          "name": "player2_name",
          "type": "bytes32"
        },
        {
          "indexed": false,
          "name": "player1_addr",
          "type": "address"
        },
        {
          "indexed": false,
          "name": "player2_addr",
          "type": "address"
        },
        {
          "indexed": false,
          "name": "host_addr",
          "type": "address"
        },
        {
          "indexed": false,
          "name": "winner_cut_percentage",
          "type": "uint8"
        },
        {
          "indexed": false,
          "name": "host_cut_percentage",
          "type": "uint8"
        },
        {
          "indexed": false,
          "name": "summary",
          "type": "string"
        },
        {
          "indexed": false,
          "name": "image_ipfs_hash",
          "type": "string"
        }
      ],
      "name": "MoneyMatchCreated",
      "type": "event"
    },
    {
      "anonymous": false,
      "inputs": [
        {
          "indexed": false,
          "name": "money_match_id",
          "type": "uint256"
        },
        {
          "indexed": false,
          "name": "bettor",
          "type": "address"
        },
        {
          "indexed": false,
          "name": "amount",
          "type": "uint256"
        },
        {
          "indexed": false,
          "name": "player",
          "type": "uint8"
        }
      ],
      "name": "BetSubmitted",
      "type": "event"
    },
    {
      "anonymous": false,
      "inputs": [
        {
          "indexed": false,
          "name": "money_match_id",
          "type": "uint256"
        },
        {
          "indexed": false,
          "name": "bettor",
          "type": "address"
        },
        {
          "indexed": false,
          "name": "amount",
          "type": "uint256"
        },
        {
          "indexed": false,
          "name": "player",
          "type": "uint8"
        }
      ],
      "name": "BetCashout",
      "type": "event"
    },
    {
      "anonymous": false,
      "inputs": [
        {
          "indexed": false,
          "name": "money_match_id",
          "type": "uint256"
        },
        {
          "indexed": false,
          "name": "host_addr",
          "type": "address"
        },
        {
          "indexed": false,
          "name": "amount",
          "type": "uint256"
        }
      ],
      "name": "HostCashout",
      "type": "event"
    },
    {
      "anonymous": false,
      "inputs": [
        {
          "indexed": false,
          "name": "money_match_id",
          "type": "uint256"
        },
        {
          "indexed": false,
          "name": "player_addr",
          "type": "address"
        },
        {
          "indexed": false,
          "name": "player",
          "type": "uint8"
        },
        {
          "indexed": false,
          "name": "amount",
          "type": "uint256"
        }
      ],
      "name": "PlayerCashout",
      "type": "event"
    },
    {
      "anonymous": false,
      "inputs": [
        {
          "indexed": false,
          "name": "money_match_id",
          "type": "uint256"
        }
      ],
      "name": "BetsClosed",
      "type": "event"
    },
    {
      "anonymous": false,
      "inputs": [
        {
          "indexed": false,
          "name": "money_match_id",
          "type": "uint256"
        },
        {
          "indexed": false,
          "name": "player_won",
          "type": "uint8"
        }
      ],
      "name": "MoneyMatchFinished",
      "type": "event"
    },
    {
      "constant": true,
      "inputs": [],
      "name": "getLatestMoneyMatchId",
      "outputs": [
        {
          "name": "",
          "type": "uint256"
        }
      ],
      "payable": false,
      "stateMutability": "view",
      "type": "function"
    },
    {
      "constant": true,
      "inputs": [
        {
          "name": "money_match_id",
          "type": "uint256"
        }
      ],
      "name": "getPlayer1Name",
      "outputs": [
        {
          "name": "",
          "type": "bytes32"
        }
      ],
      "payable": false,
      "stateMutability": "view",
      "type": "function"
    },
    {
      "constant": true,
      "inputs": [
        {
          "name": "money_match_id",
          "type": "uint256"
        }
      ],
      "name": "getPlayer2Name",
      "outputs": [
        {
          "name": "",
          "type": "bytes32"
        }
      ],
      "payable": false,
      "stateMutability": "view",
      "type": "function"
    },
    {
      "constant": true,
      "inputs": [
        {
          "name": "money_match_id",
          "type": "uint256"
        }
      ],
      "name": "getPlayer1Address",
      "outputs": [
        {
          "name": "",
          "type": "address"
        }
      ],
      "payable": false,
      "stateMutability": "view",
      "type": "function"
    },
    {
      "constant": true,
      "inputs": [
        {
          "name": "money_match_id",
          "type": "uint256"
        }
      ],
      "name": "getPlayer2Address",
      "outputs": [
        {
          "name": "",
          "type": "address"
        }
      ],
      "payable": false,
      "stateMutability": "view",
      "type": "function"
    },
    {
      "constant": true,
      "inputs": [
        {
          "name": "money_match_id",
          "type": "uint256"
        }
      ],
      "name": "getHostAddress",
      "outputs": [
        {
          "name": "",
          "type": "address"
        }
      ],
      "payable": false,
      "stateMutability": "view",
      "type": "function"
    },
    {
      "constant": true,
      "inputs": [
        {
          "name": "money_match_id",
          "type": "uint256"
        }
      ],
      "name": "getSummary",
      "outputs": [
        {
          "name": "",
          "type": "string"
        }
      ],
      "payable": false,
      "stateMutability": "view",
      "type": "function"
    },
    {
      "constant": true,
      "inputs": [
        {
          "name": "money_match_id",
          "type": "uint256"
        }
      ],
      "name": "getImageIPFSHash",
      "outputs": [
        {
          "name": "",
          "type": "string"
        }
      ],
      "payable": false,
      "stateMutability": "view",
      "type": "function"
    },
    {
      "constant": true,
      "inputs": [
        {
          "name": "money_match_id",
          "type": "uint256"
        }
      ],
      "name": "getPlayer1Pot",
      "outputs": [
        {
          "name": "",
          "type": "uint256"
        }
      ],
      "payable": false,
      "stateMutability": "view",
      "type": "function"
    },
    {
      "constant": true,
      "inputs": [
        {
          "name": "money_match_id",
          "type": "uint256"
        }
      ],
      "name": "getPlayer2Pot",
      "outputs": [
        {
          "name": "",
          "type": "uint256"
        }
      ],
      "payable": false,
      "stateMutability": "view",
      "type": "function"
    },
    {
      "constant": true,
      "inputs": [
        {
          "name": "money_match_id",
          "type": "uint256"
        }
      ],
      "name": "getCutFreePot",
      "outputs": [
        {
          "name": "",
          "type": "uint256"
        }
      ],
      "payable": false,
      "stateMutability": "view",
      "type": "function"
    },
    {
      "constant": true,
      "inputs": [
        {
          "name": "money_match_id",
          "type": "uint256"
        },
        {
          "name": "bettor",
          "type": "address"
        }
      ],
      "name": "getPlayer1BetByAddress",
      "outputs": [
        {
          "name": "",
          "type": "uint256"
        }
      ],
      "payable": false,
      "stateMutability": "view",
      "type": "function"
    },
    {
      "constant": true,
      "inputs": [
        {
          "name": "money_match_id",
          "type": "uint256"
        },
        {
          "name": "bettor",
          "type": "address"
        }
      ],
      "name": "getPlayer2BetByAddress",
      "outputs": [
        {
          "name": "",
          "type": "uint256"
        }
      ],
      "payable": false,
      "stateMutability": "view",
      "type": "function"
    },
    {
      "constant": true,
      "inputs": [
        {
          "name": "money_match_id",
          "type": "uint256"
        }
      ],
      "name": "getHostCutPercentage",
      "outputs": [
        {
          "name": "",
          "type": "uint256"
        }
      ],
      "payable": false,
      "stateMutability": "view",
      "type": "function"
    },
    {
      "constant": true,
      "inputs": [
        {
          "name": "money_match_id",
          "type": "uint256"
        }
      ],
      "name": "getWinnerCutPercentage",
      "outputs": [
        {
          "name": "",
          "type": "uint256"
        }
      ],
      "payable": false,
      "stateMutability": "view",
      "type": "function"
    },
    {
      "constant": true,
      "inputs": [
        {
          "name": "money_match_id",
          "type": "uint256"
        }
      ],
      "name": "getHostCut",
      "outputs": [
        {
          "name": "",
          "type": "uint256"
        }
      ],
      "payable": false,
      "stateMutability": "view",
      "type": "function"
    },
    {
      "constant": true,
      "inputs": [
        {
          "name": "money_match_id",
          "type": "uint256"
        }
      ],
      "name": "getWinnerCut",
      "outputs": [
        {
          "name": "",
          "type": "uint256"
        }
      ],
      "payable": false,
      "stateMutability": "view",
      "type": "function"
    },
    {
      "constant": true,
      "inputs": [
        {
          "name": "money_match_id",
          "type": "uint256"
        }
      ],
      "name": "isBetsOpen",
      "outputs": [
        {
          "name": "",
          "type": "bool"
        }
      ],
      "payable": false,
      "stateMutability": "view",
      "type": "function"
    },
    {
      "constant": true,
      "inputs": [
        {
          "name": "money_match_id",
          "type": "uint256"
        }
      ],
      "name": "isCashoutEnabled",
      "outputs": [
        {
          "name": "",
          "type": "bool"
        }
      ],
      "payable": false,
      "stateMutability": "view",
      "type": "function"
    },
    {
      "constant": true,
      "inputs": [
        {
          "name": "money_match_id",
          "type": "uint256"
        }
      ],
      "name": "isPlayer1Wins",
      "outputs": [
        {
          "name": "",
          "type": "bool"
        }
      ],
      "payable": false,
      "stateMutability": "view",
      "type": "function"
    },
    {
      "constant": true,
      "inputs": [
        {
          "name": "money_match_id",
          "type": "uint256"
        }
      ],
      "name": "isPlayer2Wins",
      "outputs": [
        {
          "name": "",
          "type": "bool"
        }
      ],
      "payable": false,
      "stateMutability": "view",
      "type": "function"
    },
    {
      "constant": true,
      "inputs": [
        {
          "name": "money_match_id",
          "type": "uint256"
        },
        {
          "name": "addr",
          "type": "address"
        }
      ],
      "name": "isAddressHost",
      "outputs": [
        {
          "name": "",
          "type": "bool"
        }
      ],
      "payable": false,
      "stateMutability": "view",
      "type": "function"
    },
    {
      "constant": true,
      "inputs": [
        {
          "name": "money_match_id",
          "type": "uint256"
        },
        {
          "name": "addr",
          "type": "address"
        }
      ],
      "name": "isAddressPlayer1",
      "outputs": [
        {
          "name": "",
          "type": "bool"
        }
      ],
      "payable": false,
      "stateMutability": "view",
      "type": "function"
    },
    {
      "constant": true,
      "inputs": [
        {
          "name": "money_match_id",
          "type": "uint256"
        },
        {
          "name": "addr",
          "type": "address"
        }
      ],
      "name": "isAddressPlayer2",
      "outputs": [
        {
          "name": "",
          "type": "bool"
        }
      ],
      "payable": false,
      "stateMutability": "view",
      "type": "function"
    },
    {
      "constant": true,
      "inputs": [
        {
          "name": "money_match_id",
          "type": "uint256"
        },
        {
          "name": "addr",
          "type": "address"
        }
      ],
      "name": "hasCashedOutPlayer1Bet",
      "outputs": [
        {
          "name": "",
          "type": "bool"
        }
      ],
      "payable": false,
      "stateMutability": "view",
      "type": "function"
    },
    {
      "constant": true,
      "inputs": [
        {
          "name": "money_match_id",
          "type": "uint256"
        },
        {
          "name": "addr",
          "type": "address"
        }
      ],
      "name": "hasCashedOutPlayer2Bet",
      "outputs": [
        {
          "name": "",
          "type": "bool"
        }
      ],
      "payable": false,
      "stateMutability": "view",
      "type": "function"
    },
    {
      "constant": true,
      "inputs": [
        {
          "name": "money_match_id",
          "type": "uint256"
        }
      ],
      "name": "hasHostCashedOut",
      "outputs": [
        {
          "name": "",
          "type": "bool"
        }
      ],
      "payable": false,
      "stateMutability": "view",
      "type": "function"
    },
    {
      "constant": true,
      "inputs": [
        {
          "name": "money_match_id",
          "type": "uint256"
        }
      ],
      "name": "hasPlayer1CashedOut",
      "outputs": [
        {
          "name": "",
          "type": "bool"
        }
      ],
      "payable": false,
      "stateMutability": "view",
      "type": "function"
    },
    {
      "constant": true,
      "inputs": [
        {
          "name": "money_match_id",
          "type": "uint256"
        }
      ],
      "name": "hasPlayer2CashedOut",
      "outputs": [
        {
          "name": "",
          "type": "bool"
        }
      ],
      "payable": false,
      "stateMutability": "view",
      "type": "function"
    },
    {
      "constant": false,
      "inputs": [
        {
          "name": "player1_name",
          "type": "bytes32"
        },
        {
          "name": "player2_name",
          "type": "bytes32"
        },
        {
          "name": "player1_addr",
          "type": "address"
        },
        {
          "name": "player2_addr",
          "type": "address"
        },
        {
          "name": "winner_cut_percentage",
          "type": "uint8"
        },
        {
          "name": "host_cut_percentage",
          "type": "uint8"
        },
        {
          "name": "summary",
          "type": "string"
        },
        {
          "name": "image_ipfs_hash",
          "type": "string"
        }
      ],
      "name": "createMoneyMatch",
      "outputs": [],
      "payable": false,
      "stateMutability": "nonpayable",
      "type": "function"
    },
    {
      "constant": false,
      "inputs": [
        {
          "name": "money_match_id",
          "type": "uint256"
        },
        {
          "name": "player",
          "type": "uint8"
        }
      ],
      "name": "bet",
      "outputs": [],
      "payable": true,
      "stateMutability": "payable",
      "type": "function"
    },
    {
      "constant": false,
      "inputs": [
        {
          "name": "money_match_id",
          "type": "uint256"
        }
      ],
      "name": "cashOutPlayer1Bet",
      "outputs": [],
      "payable": false,
      "stateMutability": "nonpayable",
      "type": "function"
    },
    {
      "constant": false,
      "inputs": [
        {
          "name": "money_match_id",
          "type": "uint256"
        }
      ],
      "name": "cashOutPlayer2Bet",
      "outputs": [],
      "payable": false,
      "stateMutability": "nonpayable",
      "type": "function"
    },
    {
      "constant": false,
      "inputs": [
        {
          "name": "money_match_id",
          "type": "uint256"
        }
      ],
      "name": "cashOutHost",
      "outputs": [],
      "payable": false,
      "stateMutability": "nonpayable",
      "type": "function"
    },
    {
      "constant": false,
      "inputs": [
        {
          "name": "money_match_id",
          "type": "uint256"
        }
      ],
      "name": "cashOutPlayer1",
      "outputs": [],
      "payable": false,
      "stateMutability": "nonpayable",
      "type": "function"
    },
    {
      "constant": false,
      "inputs": [
        {
          "name": "money_match_id",
          "type": "uint256"
        }
      ],
      "name": "cashOutPlayer2",
      "outputs": [],
      "payable": false,
      "stateMutability": "nonpayable",
      "type": "function"
    },
    {
      "constant": false,
      "inputs": [
        {
          "name": "money_match_id",
          "type": "uint256"
        }
      ],
      "name": "closeBets",
      "outputs": [],
      "payable": false,
      "stateMutability": "nonpayable",
      "type": "function"
    },
    {
      "constant": false,
      "inputs": [
        {
          "name": "money_match_id",
          "type": "uint256"
        }
      ],
      "name": "player1Wins",
      "outputs": [],
      "payable": false,
      "stateMutability": "nonpayable",
      "type": "function"
    },
    {
      "constant": false,
      "inputs": [
        {
          "name": "money_match_id",
          "type": "uint256"
        }
      ],
      "name": "player2Wins",
      "outputs": [],
      "payable": false,
      "stateMutability": "nonpayable",
      "type": "function"
    }
  ],
  "bytecode": "0x608060405234801561001057600080fd5b5061404b806100206000396000f3fe6080604052600436106102935760003560e01c806399daed201161015a578063e1200287116100c1578063eccfcb621161007a578063eccfcb6214611307578063f04cb1d91461150b578063f0a904c71461155e578063f246720c14611599578063fab74ad7146115e8578063ffa954471461162357610293565b8063e120028714610f96578063e65a608114610fe9578063e819906614611024578063e89dff5b146111f2578063e9f3ac3914611245578063eab9e7191461129457610293565b8063b5a866cd11610113578063b5a866cd14610d8f578063b762bd4814610de2578063bd46959614610e31578063c0ad4ee414610ee5578063c437a0cd14610f20578063cc33f94314610f5b57610293565b806399daed2014610adc578063a584105c14610b2f578063a6a4017e14610b7e578063ad962eed14610bf1578063aee1446014610c60578063af5306da14610d1457610293565b80633fa14f3f116101fe5780636a1da2a8116101b75780636a1da2a81461091257806375570ea7146109655780637624a67f146109a057806380c541d8146109cb57806387d9e89814610a1a57806393f5faa414610a8957610293565b80633fa14f3f1461074857806340fc4c201461079b5780634d9de745146107c65780635ad7413a14610839578063635eb48b1461087457806369965af8146108c357610293565b806313b9d9751161025057806313b9d975146104ee57806314c5c7d8146105415780631a760f1b146105bc5780632544e45c1461060b5780632bf280b5146106865780633908f4e1146106d957610293565b80630157e1aa146102985780630528b43d1461030b57806309736de914610346578063097b9910146103b957806310d458ac1461042c5780631220e2861461049f575b600080fd5b3480156102a457600080fd5b506102f1600480360360408110156102bb57600080fd5b8101908080359060200190929190803573ffffffffffffffffffffffffffffffffffffffff169060200190929190505050611692565b604051808215151515815260200191505060405180910390f35b34801561031757600080fd5b506103446004803603602081101561032e57600080fd5b81019080803590602001909291905050506116fa565b005b34801561035257600080fd5b5061039f6004803603604081101561036957600080fd5b8101908080359060200190929190803573ffffffffffffffffffffffffffffffffffffffff1690602001909291905050506119b9565b604051808215151515815260200191505060405180910390f35b3480156103c557600080fd5b50610412600480360360408110156103dc57600080fd5b8101908080359060200190929190803573ffffffffffffffffffffffffffffffffffffffff1690602001909291905050506119e8565b604051808215151515815260200191505060405180910390f35b34801561043857600080fd5b506104856004803603604081101561044f57600080fd5b8101908080359060200190929190803573ffffffffffffffffffffffffffffffffffffffff169060200190929190505050611a56565b604051808215151515815260200191505060405180910390f35b3480156104ab57600080fd5b506104d8600480360360208110156104c257600080fd5b8101908080359060200190929190505050611ac4565b6040518082815260200191505060405180910390f35b3480156104fa57600080fd5b506105276004803603602081101561051157600080fd5b8101908080359060200190929190505050611b22565b604051808215151515815260200191505060405180910390f35b34801561054d57600080fd5b5061057a6004803603602081101561056457600080fd5b8101908080359060200190929190505050611b4c565b604051808273ffffffffffffffffffffffffffffffffffffffff1673ffffffffffffffffffffffffffffffffffffffff16815260200191505060405180910390f35b3480156105c857600080fd5b506105f5600480360360208110156105df57600080fd5b8101908080359060200190929190505050611b8b565b6040518082815260200191505060405180910390f35b34801561061757600080fd5b506106446004803603602081101561062e57600080fd5b8101908080359060200190929190505050611baa565b604051808273ffffffffffffffffffffffffffffffffffffffff1673ffffffffffffffffffffffffffffffffffffffff16815260200191505060405180910390f35b34801561069257600080fd5b506106bf600480360360208110156106a957600080fd5b8101908080359060200190929190505050611be9565b604051808215151515815260200191505060405180910390f35b3480156106e557600080fd5b50610732600480360360408110156106fc57600080fd5b8101908080359060200190929190803573ffffffffffffffffffffffffffffffffffffffff169060200190929190505050611c13565b6040518082815260200191505060405180910390f35b34801561075457600080fd5b506107816004803603602081101561076b57600080fd5b8101908080359060200190929190505050611c38565b604051808215151515815260200191505060405180910390f35b3480156107a757600080fd5b506107b0611c7d565b6040518082815260200191505060405180910390f35b3480156107d257600080fd5b5061081f600480360360408110156107e957600080fd5b8101908080359060200190929190803573ffffffffffffffffffffffffffffffffffffffff169060200190929190505050611c87565b604051808215151515815260200191505060405180910390f35b34801561084557600080fd5b506108726004803603602081101561085c57600080fd5b8101908080359060200190929190505050611cef565b005b34801561088057600080fd5b506108ad6004803603602081101561089757600080fd5b810190808035906020019092919050505061200d565b6040518082815260200191505060405180910390f35b3480156108cf57600080fd5b506108fc600480360360208110156108e657600080fd5b810190808035906020019092919050505061202c565b6040518082815260200191505060405180910390f35b34801561091e57600080fd5b5061094b6004803603602081101561093557600080fd5b810190808035906020019092919050505061205b565b604051808215151515815260200191505060405180910390f35b34801561097157600080fd5b5061099e6004803603602081101561098857600080fd5b81019080803590602001909291905050506120e2565b005b3480156109ac57600080fd5b506109b56121b4565b6040518082815260200191505060405180910390f35b3480156109d757600080fd5b50610a04600480360360208110156109ee57600080fd5b81019080803590602001909291905050506121ba565b6040518082815260200191505060405180910390f35b348015610a2657600080fd5b50610a7360048036036040811015610a3d57600080fd5b8101908080359060200190929190803573ffffffffffffffffffffffffffffffffffffffff1690602001909291905050506121d9565b6040518082815260200191505060405180910390f35b348015610a9557600080fd5b50610ac260048036036020811015610aac57600080fd5b8101908080359060200190929190505050612234565b604051808215151515815260200191505060405180910390f35b348015610ae857600080fd5b50610b1560048036036020811015610aff57600080fd5b8101908080359060200190929190505050612279565b604051808215151515815260200191505060405180910390f35b348015610b3b57600080fd5b50610b6860048036036020811015610b5257600080fd5b8101908080359060200190929190505050612299565b6040518082815260200191505060405180910390f35b348015610b8a57600080fd5b50610bd760048036036040811015610ba157600080fd5b8101908080359060200190929190803573ffffffffffffffffffffffffffffffffffffffff1690602001909291905050506122b8565b604051808215151515815260200191505060405180910390f35b348015610bfd57600080fd5b50610c4a60048036036040811015610c1457600080fd5b8101908080359060200190929190803573ffffffffffffffffffffffffffffffffffffffff169060200190929190505050612326565b6040518082815260200191505060405180910390f35b348015610c6c57600080fd5b50610c9960048036036020811015610c8357600080fd5b810190808035906020019092919050505061234b565b6040518080602001828103825283818151815260200191508051906020019080838360005b83811015610cd9578082015181840152602081019050610cbe565b50505050905090810190601f168015610d065780820380516001836020036101000a031916815260200191505b509250505060405180910390f35b348015610d2057600080fd5b50610d4d60048036036020811015610d3757600080fd5b8101908080359060200190929190505050612402565b604051808273ffffffffffffffffffffffffffffffffffffffff1673ffffffffffffffffffffffffffffffffffffffff16815260200191505060405180910390f35b348015610d9b57600080fd5b50610dc860048036036020811015610db257600080fd5b8101908080359060200190929190505050612441565b604051808215151515815260200191505060405180910390f35b348015610dee57600080fd5b50610e1b60048036036020811015610e0557600080fd5b8101908080359060200190929190505050612461565b6040518082815260200191505060405180910390f35b348015610e3d57600080fd5b50610e6a60048036036020811015610e5457600080fd5b81019080803590602001909291905050506124bf565b6040518080602001828103825283818151815260200191508051906020019080838360005b83811015610eaa578082015181840152602081019050610e8f565b50505050905090810190601f168015610ed75780820380516001836020036101000a031916815260200191505b509250505060405180910390f35b348015610ef157600080fd5b50610f1e60048036036020811015610f0857600080fd5b8101908080359060200190929190505050612576565b005b610f5960048036036040811015610f3657600080fd5b8101908080359060200190929190803560ff169060200190929190505050612654565b005b348015610f6757600080fd5b50610f9460048036036020811015610f7e57600080fd5b81019080803590602001909291905050506129af565b005b348015610fa257600080fd5b50610fcf60048036036020811015610fb957600080fd5b8101908080359060200190929190505050612ccd565b604051808215151515815260200191505060405180910390f35b348015610ff557600080fd5b506110226004803603602081101561100c57600080fd5b8101908080359060200190929190505050612d11565b005b34801561103057600080fd5b506111f0600480360361010081101561104857600080fd5b810190808035906020019092919080359060200190929190803573ffffffffffffffffffffffffffffffffffffffff169060200190929190803573ffffffffffffffffffffffffffffffffffffffff169060200190929190803560ff169060200190929190803560ff169060200190929190803590602001906401000000008111156110d357600080fd5b8201836020820111156110e557600080fd5b8035906020019184600183028401116401000000008311171561110757600080fd5b91908080601f016020809104026020016040519081016040528093929190818152602001838380828437600081840152601f19601f8201169050808301925050505050505091929192908035906020019064010000000081111561116a57600080fd5b82018360208201111561117c57600080fd5b8035906020019184600183028401116401000000008311171561119e57600080fd5b91908080601f016020809104026020016040519081016040528093929190818152602001838380828437600081840152601f19601f820116905080830192505050505050509192919290505050612def565b005b3480156111fe57600080fd5b5061122b6004803603602081101561121557600080fd5b8101908080359060200190929190505050613254565b604051808215151515815260200191505060405180910390f35b34801561125157600080fd5b5061127e6004803603602081101561126857600080fd5b8101908080359060200190929190505050613274565b6040518082815260200191505060405180910390f35b3480156112a057600080fd5b506112ed600480360360408110156112b757600080fd5b8101908080359060200190929190803573ffffffffffffffffffffffffffffffffffffffff1690602001909291905050506132a3565b604051808215151515815260200191505060405180910390f35b34801561131357600080fd5b506113406004803603602081101561132a57600080fd5b81019080803590602001909291905050506132d2565b604051808d81526020018c81526020018b73ffffffffffffffffffffffffffffffffffffffff1673ffffffffffffffffffffffffffffffffffffffff1681526020018a73ffffffffffffffffffffffffffffffffffffffff1673ffffffffffffffffffffffffffffffffffffffff1681526020018973ffffffffffffffffffffffffffffffffffffffff1673ffffffffffffffffffffffffffffffffffffffff1681526020018860ff1660ff1681526020018760ff1660ff168152602001806020018060200186600481111561141257fe5b60ff168152602001858152602001848152602001838103835288818151815260200191508051906020019080838360005b8381101561145e578082015181840152602081019050611443565b50505050905090810190601f16801561148b5780820380516001836020036101000a031916815260200191505b50838103825287818151815260200191508051906020019080838360005b838110156114c45780820151818401526020810190506114a9565b50505050905090810190601f1680156114f15780820380516001836020036101000a031916815260200191505b509e50505050505050505050505050505060405180910390f35b34801561151757600080fd5b506115446004803603602081101561152e57600080fd5b81019080803590602001909291905050506134e9565b604051808215151515815260200191505060405180910390f35b34801561156a57600080fd5b506115976004803603602081101561158157600080fd5b8101908080359060200190929190505050613513565b005b3480156115a557600080fd5b506115d2600480360360208110156115bc57600080fd5b8101908080359060200190929190505050613749565b6040518082815260200191505060405180910390f35b3480156115f457600080fd5b506116216004803603602081101561160b57600080fd5b8101908080359060200190929190505050613858565b005b34801561162f57600080fd5b5061167c6004803603604081101561164657600080fd5b8101908080359060200190929190803573ffffffffffffffffffffffffffffffffffffffff169060200190929190505050613b17565b6040518082815260200191505060405180910390f35b60006004600084815260200190815260200160002060008373ffffffffffffffffffffffffffffffffffffffff1673ffffffffffffffffffffffffffffffffffffffff16815260200190815260200160002060009054906101000a900460ff16905092915050565b806117048161205b565b611759576040517f08c379a0000000000000000000000000000000000000000000000000000000008152600401808060200182810382526039815260200180613f046039913960400191505060405180910390fd5b81611763816134e9565b156117d6576040517f08c379a000000000000000000000000000000000000000000000000000000000815260040180806020018281038252601f8152602001807f506c6179657220322068617320616c726561647920636173686564206f75740081525060200191505060405180910390fd5b826117e181336119e8565b611836576040517f08c379a000000000000000000000000000000000000000000000000000000000815260040180806020018281038252602d815260200180613ff3602d913960400191505060405180910390fd5b8361184081612ccd565b6118b2576040517f08c379a00000000000000000000000000000000000000000000000000000000081526004018080602001828103825260158152602001807f506c61796572203220686173206e6f7420776f6e2e000000000000000000000081525060200191505060405180910390fd5b60006118bd86611ac4565b90503373ffffffffffffffffffffffffffffffffffffffff166108fc829081150290604051600060405180830381858888f19350505050158015611905573d6000803e3d6000fd5b5060016008600088815260200190815260200160002060006101000a81548160ff0219169083151502179055507f19570f66c72204bf4894b61c2c987a7e607c3fae1d725781ceadff4a0d8deb008633600284604051808581526020018473ffffffffffffffffffffffffffffffffffffffff1673ffffffffffffffffffffffffffffffffffffffff1681526020018360ff16815260200182815260200194505050505060405180910390a1505050505050565b60046020528160005260406000206020528060005260406000206000915091509054906101000a900460ff1681565b60008173ffffffffffffffffffffffffffffffffffffffff1660008085815260200190815260200160002060030160009054906101000a900473ffffffffffffffffffffffffffffffffffffffff1673ffffffffffffffffffffffffffffffffffffffff1614905092915050565b60008173ffffffffffffffffffffffffffffffffffffffff1660008085815260200190815260200160002060020160009054906101000a900473ffffffffffffffffffffffffffffffffffffffff1673ffffffffffffffffffffffffffffffffffffffff1614905092915050565b600080611aea611ad3846121ba565b611adc85611b8b565b613b7290919063ffffffff16565b9050611b1a6064611b0c611afd86613274565b84613bfa90919063ffffffff16565b613c8090919063ffffffff16565b915050919050565b60006007600083815260200190815260200160002060009054906101000a900460ff169050919050565b600080600083815260200190815260200160002060030160009054906101000a900473ffffffffffffffffffffffffffffffffffffffff169050919050565b6000806000838152602001908152602001600020600801549050919050565b600080600083815260200190815260200160002060040160009054906101000a900473ffffffffffffffffffffffffffffffffffffffff169050919050565b60006006600083815260200190815260200160002060009054906101000a900460ff169050919050565b6002602052816000526040600020602052806000526040600020600091509150505481565b600060016004811115611c4757fe5b60008084815260200190815260200160002060070160009054906101000a900460ff166004811115611c7557fe5b149050919050565b6000600154905090565b60006005600084815260200190815260200160002060008373ffffffffffffffffffffffffffffffffffffffff1673ffffffffffffffffffffffffffffffffffffffff16815260200190815260200160002060009054906101000a900460ff16905092915050565b80611cf98161205b565b611d4e576040517f08c379a0000000000000000000000000000000000000000000000000000000008152600401808060200182810382526039815260200180613f046039913960400191505060405180910390fd5b81611d598133611c87565b15611daf576040517f08c379a000000000000000000000000000000000000000000000000000000000815260040180806020018281038252602e815260200180613f3d602e913960400191505060405180910390fd5b826000611dbc82336121d9565b11611e12576040517f08c379a0000000000000000000000000000000000000000000000000000000008152600401808060200182810382526024815260200180613ee06024913960400191505060405180910390fd5b83611e1c81612ccd565b611e8e576040517f08c379a00000000000000000000000000000000000000000000000000000000081526004018080602001828103825260158152602001807f506c61796572203220686173206e6f7420776f6e2e000000000000000000000081525060200191505060405180910390fd5b6000611e9986613749565b90506000611ed3611ea9886121ba565b611ec5611eb68a336121d9565b85613bfa90919063ffffffff16565b613c8090919063ffffffff16565b90503373ffffffffffffffffffffffffffffffffffffffff166108fc829081150290604051600060405180830381858888f19350505050158015611f1b573d6000803e3d6000fd5b5060016005600089815260200190815260200160002060003373ffffffffffffffffffffffffffffffffffffffff1673ffffffffffffffffffffffffffffffffffffffff16815260200190815260200160002060006101000a81548160ff0219169083151502179055507f87d3348e76f7c90e52e613d5cec8a0af2ffcb9f3b2acd05c2d39f0f7b93124b08733836002604051808581526020018473ffffffffffffffffffffffffffffffffffffffff1673ffffffffffffffffffffffffffffffffffffffff1681526020018381526020018260ff16815260200194505050505060405180910390a150505050505050565b6000806000838152602001908152602001600020600001549050919050565b600080600083815260200190815260200160002060040160159054906101000a900460ff1660ff169050919050565b60006003600481111561206a57fe5b60008084815260200190815260200160002060070160009054906101000a900460ff16600481111561209857fe5b14806120db57506004808111156120ab57fe5b60008084815260200190815260200160002060070160009054906101000a900460ff1660048111156120d957fe5b145b9050919050565b806120ed81336122b8565b612142576040517f08c379a0000000000000000000000000000000000000000000000000000000008152600401808060200182810382526029815260200180613e3e6029913960400191505060405180910390fd5b600260008084815260200190815260200160002060070160006101000a81548160ff0219169083600481111561217457fe5b02179055507facc870375c6f27f32904409b6de22b15406d297f25fffc2ebdef807854ee8588826040518082815260200191505060405180910390a15050565b60015481565b6000806000838152602001908152602001600020600901549050919050565b60006003600084815260200190815260200160002060008373ffffffffffffffffffffffffffffffffffffffff1673ffffffffffffffffffffffffffffffffffffffff16815260200190815260200160002054905092915050565b60006003600481111561224357fe5b60008084815260200190815260200160002060070160009054906101000a900460ff16600481111561227157fe5b149050919050565b60086020528060005260406000206000915054906101000a900460ff1681565b6000806000838152602001908152602001600020600101549050919050565b60008173ffffffffffffffffffffffffffffffffffffffff1660008085815260200190815260200160002060040160009054906101000a900473ffffffffffffffffffffffffffffffffffffffff1673ffffffffffffffffffffffffffffffffffffffff1614905092915050565b6003602052816000526040600020602052806000526040600020600091509150505481565b60606000808381526020019081526020016000206005018054600181600116156101000203166002900480601f0160208091040260200160405190810160405280929190818152602001828054600181600116156101000203166002900480156123f65780601f106123cb576101008083540402835291602001916123f6565b820191906000526020600020905b8154815290600101906020018083116123d957829003601f168201915b50505050509050919050565b600080600083815260200190815260200160002060020160009054906101000a900473ffffffffffffffffffffffffffffffffffffffff169050919050565b60066020528060005260406000206000915054906101000a900460ff1681565b600080612487612470846121ba565b61247985611b8b565b613b7290919063ffffffff16565b90506124b760646124a961249a8661202c565b84613bfa90919063ffffffff16565b613c8090919063ffffffff16565b915050919050565b60606000808381526020019081526020016000206006018054600181600116156101000203166002900480601f01602080910402602001604051908101604052809291908181526020018280546001816001161561010002031660029004801561256a5780601f1061253f5761010080835404028352916020019161256a565b820191906000526020600020905b81548152906001019060200180831161254d57829003601f168201915b50505050509050919050565b8061258181336122b8565b6125d6576040517f08c379a0000000000000000000000000000000000000000000000000000000008152600401808060200182810382526029815260200180613e3e6029913960400191505060405180910390fd5b600360008084815260200190815260200160002060070160006101000a81548160ff0219169083600481111561260857fe5b02179055507f2ef65fd406711d61818757b2dc79533a4eacd72eb700b63ee84a30b11ed37a52826001604051808381526020018260ff1681526020019250505060405180910390a15050565b8161265e81611c38565b6126b3576040517f08c379a0000000000000000000000000000000000000000000000000000000008152600401808060200182810382526037815260200180613fbc6037913960400191505060405180910390fd5b8160018160ff1614806126c9575060028160ff16145b61271e576040517f08c379a000000000000000000000000000000000000000000000000000000000815260040180806020018281038252602a815260200180613e67602a913960400191505060405180910390fd5b60018360ff1614156128235761278d346002600087815260200190815260200160002060003373ffffffffffffffffffffffffffffffffffffffff1673ffffffffffffffffffffffffffffffffffffffff16815260200190815260200160002054613b7290919063ffffffff16565b6002600086815260200190815260200160002060003373ffffffffffffffffffffffffffffffffffffffff1673ffffffffffffffffffffffffffffffffffffffff168152602001908152602001600020819055506128093460008087815260200190815260200160002060080154613b7290919063ffffffff16565b600080868152602001908152602001600020600801819055505b60028360ff16141561292857612892346003600087815260200190815260200160002060003373ffffffffffffffffffffffffffffffffffffffff1673ffffffffffffffffffffffffffffffffffffffff16815260200190815260200160002054613b7290919063ffffffff16565b6003600086815260200190815260200160002060003373ffffffffffffffffffffffffffffffffffffffff1673ffffffffffffffffffffffffffffffffffffffff1681526020019081526020016000208190555061290e3460008087815260200190815260200160002060090154613b7290919063ffffffff16565b600080868152602001908152602001600020600901819055505b7f2ad3d2804dcc8a5c8146b55ad4e07d4bcddec2592666927bcb3bbbf11d1f703984333486604051808581526020018473ffffffffffffffffffffffffffffffffffffffff1673ffffffffffffffffffffffffffffffffffffffff1681526020018381526020018260ff1660ff16815260200194505050505060405180910390a150505050565b806129b98161205b565b612a0e576040517f08c379a0000000000000000000000000000000000000000000000000000000008152600401808060200182810382526039815260200180613f046039913960400191505060405180910390fd5b81612a198133611692565b15612a6f576040517f08c379a000000000000000000000000000000000000000000000000000000000815260040180806020018281038252602e815260200180613e91602e913960400191505060405180910390fd5b826000612a7c8233613b17565b11612ad2576040517f08c379a0000000000000000000000000000000000000000000000000000000008152600401808060200182810382526024815260200180613f986024913960400191505060405180910390fd5b83612adc81612234565b612b4e576040517f08c379a00000000000000000000000000000000000000000000000000000000081526004018080602001828103825260158152602001807f506c61796572203120686173206e6f7420776f6e2e000000000000000000000081525060200191505060405180910390fd5b6000612b5986613749565b90506000612b93612b6988611b8b565b612b85612b768a33613b17565b85613bfa90919063ffffffff16565b613c8090919063ffffffff16565b90503373ffffffffffffffffffffffffffffffffffffffff166108fc829081150290604051600060405180830381858888f19350505050158015612bdb573d6000803e3d6000fd5b5060016004600089815260200190815260200160002060003373ffffffffffffffffffffffffffffffffffffffff1673ffffffffffffffffffffffffffffffffffffffff16815260200190815260200160002060006101000a81548160ff0219169083151502179055507f87d3348e76f7c90e52e613d5cec8a0af2ffcb9f3b2acd05c2d39f0f7b93124b08733836001604051808581526020018473ffffffffffffffffffffffffffffffffffffffff1673ffffffffffffffffffffffffffffffffffffffff1681526020018381526020018260ff16815260200194505050505060405180910390a150505050505050565b6000600480811115612cdb57fe5b60008084815260200190815260200160002060070160009054906101000a900460ff166004811115612d0957fe5b149050919050565b80612d1c81336122b8565b612d71576040517f08c379a0000000000000000000000000000000000000000000000000000000008152600401808060200182810382526029815260200180613e3e6029913960400191505060405180910390fd5b600460008084815260200190815260200160002060070160006101000a81548160ff02191690836004811115612da357fe5b02179055507f2ef65fd406711d61818757b2dc79533a4eacd72eb700b63ee84a30b11ed37a52826002604051808381526020018260ff1681526020019250505060405180910390a15050565b612e0460018054613b7290919063ffffffff16565b6001819055506040518061018001604052808981526020018881526020018773ffffffffffffffffffffffffffffffffffffffff1681526020018673ffffffffffffffffffffffffffffffffffffffff1681526020013373ffffffffffffffffffffffffffffffffffffffff1681526020018560ff1681526020018460ff16815260200183815260200182815260200160016004811115612ea157fe5b81526020016000815260200160008152506000806001548152602001908152602001600020600082015181600001556020820151816001015560408201518160020160006101000a81548173ffffffffffffffffffffffffffffffffffffffff021916908373ffffffffffffffffffffffffffffffffffffffff16021790555060608201518160030160006101000a81548173ffffffffffffffffffffffffffffffffffffffff021916908373ffffffffffffffffffffffffffffffffffffffff16021790555060808201518160040160006101000a81548173ffffffffffffffffffffffffffffffffffffffff021916908373ffffffffffffffffffffffffffffffffffffffff16021790555060a08201518160040160146101000a81548160ff021916908360ff16021790555060c08201518160040160156101000a81548160ff021916908360ff16021790555060e082015181600501908051906020019061300d929190613d98565b5061010082015181600601908051906020019061302b929190613d98565b506101208201518160070160006101000a81548160ff0219169083600481111561305157fe5b0217905550610140820151816008015561016082015181600901559050507fc55ec2fce9f231be8fced9846c24a34c711f151284d2052fb410b5b1c1a5d23c60015489898989338a8a8a8a604051808b81526020018a81526020018981526020018873ffffffffffffffffffffffffffffffffffffffff1673ffffffffffffffffffffffffffffffffffffffff1681526020018773ffffffffffffffffffffffffffffffffffffffff1673ffffffffffffffffffffffffffffffffffffffff1681526020018673ffffffffffffffffffffffffffffffffffffffff1673ffffffffffffffffffffffffffffffffffffffff1681526020018560ff1660ff1681526020018460ff1660ff1681526020018060200180602001838103835285818151815260200191508051906020019080838360005b838110156131a0578082015181840152602081019050613185565b50505050905090810190601f1680156131cd5780820380516001836020036101000a031916815260200191505b50838103825284818151815260200191508051906020019080838360005b838110156132065780820151818401526020810190506131eb565b50505050905090810190601f1680156132335780820380516001836020036101000a031916815260200191505b509c5050505050505050505050505060405180910390a15050505050505050565b60076020528060005260406000206000915054906101000a900460ff1681565b600080600083815260200190815260200160002060040160149054906101000a900460ff1660ff169050919050565b60056020528160005260406000206020528060005260406000206000915091509054906101000a900460ff1681565b60006020528060005260406000206000915090508060000154908060010154908060020160009054906101000a900473ffffffffffffffffffffffffffffffffffffffff16908060030160009054906101000a900473ffffffffffffffffffffffffffffffffffffffff16908060040160009054906101000a900473ffffffffffffffffffffffffffffffffffffffff16908060040160149054906101000a900460ff16908060040160159054906101000a900460ff1690806005018054600181600116156101000203166002900480601f0160208091040260200160405190810160405280929190818152602001828054600181600116156101000203166002900480156134225780601f106133f757610100808354040283529160200191613422565b820191906000526020600020905b81548152906001019060200180831161340557829003601f168201915b505050505090806006018054600181600116156101000203166002900480601f0160208091040260200160405190810160405280929190818152602001828054600181600116156101000203166002900480156134c05780601f10613495576101008083540402835291602001916134c0565b820191906000526020600020905b8154815290600101906020018083116134a357829003601f168201915b5050505050908060070160009054906101000a900460ff1690806008015490806009015490508c565b60006008600083815260200190815260200160002060009054906101000a900460ff169050919050565b8061351d8161205b565b613572576040517f08c379a0000000000000000000000000000000000000000000000000000000008152600401808060200182810382526039815260200180613f046039913960400191505060405180910390fd5b8161357c81611be9565b156135ef576040517f08c379a000000000000000000000000000000000000000000000000000000000815260040180806020018281038252601b8152602001807f486f73742068617320616c726561647920636173686564206f7574000000000081525060200191505060405180910390fd5b826135fa81336122b8565b61364f576040517f08c379a0000000000000000000000000000000000000000000000000000000008152600401808060200182810382526029815260200180613e3e6029913960400191505060405180910390fd5b600061365a85612461565b90503373ffffffffffffffffffffffffffffffffffffffff166108fc829081150290604051600060405180830381858888f193505050501580156136a2573d6000803e3d6000fd5b5060016006600087815260200190815260200160002060006101000a81548160ff0219169083151502179055507fd29da2ab5f029042896fc2fd556a53b40170d750e63e36befdde9fe0c844e959853383604051808481526020018373ffffffffffffffffffffffffffffffffffffffff1673ffffffffffffffffffffffffffffffffffffffff168152602001828152602001935050505060405180910390a15050505050565b6000806137896000808581526020019081526020016000206009015460008086815260200190815260200160002060080154613b7290919063ffffffff16565b905060006137d860646137ca60008088815260200190815260200160002060040160159054906101000a900460ff1660ff1685613bfa90919063ffffffff16565b613c8090919063ffffffff16565b90506000613827606461381960008089815260200190815260200160002060040160149054906101000a900460ff1660ff1686613bfa90919063ffffffff16565b613c8090919063ffffffff16565b905061384e816138408486613d0f90919063ffffffff16565b613d0f90919063ffffffff16565b9350505050919050565b806138628161205b565b6138b7576040517f08c379a0000000000000000000000000000000000000000000000000000000008152600401808060200182810382526039815260200180613f046039913960400191505060405180910390fd5b816138c181611b22565b15613934576040517f08c379a000000000000000000000000000000000000000000000000000000000815260040180806020018281038252601f8152602001807f506c6179657220312068617320616c726561647920636173686564206f75740081525060200191505060405180910390fd5b8261393f8133611a56565b613994576040517f08c379a000000000000000000000000000000000000000000000000000000000815260040180806020018281038252602d815260200180613f6b602d913960400191505060405180910390fd5b8361399e81612234565b613a10576040517f08c379a00000000000000000000000000000000000000000000000000000000081526004018080602001828103825260158152602001807f506c61796572203120686173206e6f7420776f6e2e000000000000000000000081525060200191505060405180910390fd5b6000613a1b86611ac4565b90503373ffffffffffffffffffffffffffffffffffffffff166108fc829081150290604051600060405180830381858888f19350505050158015613a63573d6000803e3d6000fd5b5060016007600088815260200190815260200160002060006101000a81548160ff0219169083151502179055507f19570f66c72204bf4894b61c2c987a7e607c3fae1d725781ceadff4a0d8deb008633600184604051808581526020018473ffffffffffffffffffffffffffffffffffffffff1673ffffffffffffffffffffffffffffffffffffffff1681526020018360ff16815260200182815260200194505050505060405180910390a1505050505050565b60006002600084815260200190815260200160002060008373ffffffffffffffffffffffffffffffffffffffff1673ffffffffffffffffffffffffffffffffffffffff16815260200190815260200160002054905092915050565b600080828401905083811015613bf0576040517f08c379a000000000000000000000000000000000000000000000000000000000815260040180806020018281038252601b8152602001807f536166654d6174683a206164646974696f6e206f766572666c6f77000000000081525060200191505060405180910390fd5b8091505092915050565b600080831415613c0d5760009050613c7a565b6000828402905082848281613c1e57fe5b0414613c75576040517f08c379a0000000000000000000000000000000000000000000000000000000008152600401808060200182810382526021815260200180613ebf6021913960400191505060405180910390fd5b809150505b92915050565b6000808211613cf7576040517f08c379a000000000000000000000000000000000000000000000000000000000815260040180806020018281038252601a8152602001807f536166654d6174683a206469766973696f6e206279207a65726f00000000000081525060200191505060405180910390fd5b6000828481613d0257fe5b0490508091505092915050565b600082821115613d87576040517f08c379a000000000000000000000000000000000000000000000000000000000815260040180806020018281038252601e8152602001807f536166654d6174683a207375627472616374696f6e206f766572666c6f77000081525060200191505060405180910390fd5b600082840390508091505092915050565b828054600181600116156101000203166002900490600052602060002090601f016020900481019282601f10613dd957805160ff1916838001178555613e07565b82800160010185558215613e07579182015b82811115613e06578251825591602001919060010190613deb565b5b509050613e149190613e18565b5090565b613e3a91905b80821115613e36576000816000905550600101613e1e565b5090565b9056fe596f752068617665206e6f742074686520686f7374206f662074686973206d6f6e6579206d61746368506c617965722073656c656374656420697320696e76616c69642c20706c656173652031206f7220322e426574746f722068617320616c726561647920636173686564206f75742068697320706c61796572203120626574536166654d6174683a206d756c7469706c69636174696f6e206f766572666c6f77596f752068617665206e6f206265747320706c6163656420666f7220706c617965722032436173686f75742069732063757272656e746c7920636c6f73656420666f72207468652073656c6563746564206d6f6e6579206d617463682e426574746f722068617320616c726561647920636173686564206f75742068697320706c61796572203220626574596f752068617665206e6f742074686520706c617965722031206f662074686973206d6f6e6579206d61746368596f752068617665206e6f206265747320706c6163656420666f7220706c61796572203142657473206172652063757272656e746c7920636c6f73656420666f72207468652073656c6563746564206d6f6e6579206d617463682e596f752068617665206e6f742074686520706c617965722032206f662074686973206d6f6e6579206d61746368a165627a7a72305820442888843c009f50fdfd405cb2d4ebda57378190e2becab38e00fd7fa515f7440029",
  "source": "pragma solidity ^0.5.0;\nimport \"client/node_modules/openzeppelin-solidity/contracts/math/SafeMath.sol\";\n\ncontract SimpleStorage {\n  using SafeMath for uint256;\n\n  // Structs\n  struct MoneyMatch\n  {\n    bytes32 player1_name;\n    bytes32 player2_name;\n    address player1_addr;\n    address player2_addr;\n    address host_addr;\n    uint8 winner_cut_percentage;\n    uint8 host_cut_percentage;\n    string summary;\n    string image_ipfs_hash;\n    MoneyMatchState state;\n    uint256 player1_pot;\n    uint256 player2_pot;\n  }\n\n  // Events\n  event MoneyMatchCreated\n  (\n    uint256 id,\n    bytes32 player1_name,\n    bytes32 player2_name,\n    address player1_addr,\n    address player2_addr,\n    address host_addr,\n    uint8 winner_cut_percentage,\n    uint8 host_cut_percentage,\n    string summary,\n    string image_ipfs_hash\n  );\n\n  event BetSubmitted\n  (\n    uint256 money_match_id,\n    address bettor,\n    uint256 amount,\n    uint8 player\n  );\n\n  event BetCashout\n  (\n    uint256 money_match_id,\n    address bettor,\n    uint256 amount,\n    uint8 player\n  );\n\n  event HostCashout\n  (\n    uint256 money_match_id,\n    address host_addr,\n    uint256 amount\n  );\n\n  event PlayerCashout\n  (\n    uint256 money_match_id,\n    address player_addr,\n    uint8 player,\n    uint256 amount\n  );\n\n  event BetsClosed\n  (\n    uint256 money_match_id\n  );\n\n  event MoneyMatchFinished\n  (\n    uint256 money_match_id,\n    uint8 player_won\n  );\n\n  // Enums\n  enum MoneyMatchState { Undefined, BetsOpen, BetsClosed, Player1Wins, Player2Wins }\n  mapping(uint256 => MoneyMatch) public money_matches; // Stores money matches data\n  uint256 public money_match_count; // Helps generating a new money match id\n  mapping(uint256 => mapping(address => uint256)) public player1_bets; // maps[money match][bettor][bet]\n  mapping(uint256 => mapping(address => uint256)) public player2_bets; // maps[money match][bettor][bet]\n  mapping(uint256 => mapping(address => bool)) public has_cashed_out_player1_bet; // Helps preventing double cash out\n  mapping(uint256 => mapping(address => bool)) public has_cashed_out_player2_bet; // maps[money_match_id][has_cashed_out]\n  mapping(uint256 => bool) public host_has_cashed_out; // maps[money_match_id][has_cashed_out]\n  mapping(uint256 => bool) public player1_has_cashed_out;\n  mapping(uint256 => bool) public player2_has_cashed_out;\n\n  // Read only functions\n  function getLatestMoneyMatchId() public view returns (uint256) {\n    return money_match_count;\n  }\n\n  function getPlayer1Name(uint256 money_match_id) public view returns (bytes32) {\n    return money_matches[money_match_id].player1_name;\n  }\n\n  function getPlayer2Name(uint256 money_match_id) public view returns (bytes32) {\n    return money_matches[money_match_id].player2_name;\n  }\n\n  function getPlayer1Address(uint256 money_match_id) public view returns (address) {\n    return money_matches[money_match_id].player1_addr;\n  }\n\n  function getPlayer2Address(uint256 money_match_id) public view returns (address) {\n    return money_matches[money_match_id].player2_addr;\n  }\n\n  function getHostAddress(uint256 money_match_id) public view returns (address) {\n    return money_matches[money_match_id].host_addr;\n  }\n\n  function getSummary(uint256 money_match_id) public view returns (string memory) {\n    return money_matches[money_match_id].summary;\n  }\n\n  function getImageIPFSHash(uint256 money_match_id) public view returns (string memory) {\n    return money_matches[money_match_id].image_ipfs_hash;\n  }\n\n  function getPlayer1Pot(uint256 money_match_id) public view returns (uint) {\n    return money_matches[money_match_id].player1_pot;\n  }\n\n  function getPlayer2Pot(uint256 money_match_id) public view returns (uint) {\n    return money_matches[money_match_id].player2_pot;\n  }\n\n  function getCutFreePot(uint256 money_match_id) public view returns (uint) {\n    uint256 total_pot = money_matches[money_match_id].player1_pot.\n                        add(money_matches[money_match_id].player2_pot);\n    uint256 host_cut = total_pot.\n                        mul(money_matches[money_match_id].host_cut_percentage).\n                        div(100);\n    uint256 winner_cut = total_pot.\n                        mul(money_matches[money_match_id].winner_cut_percentage).\n                        div(100);\n    return total_pot.sub(host_cut).sub(winner_cut);\n  }\n\n  function getPlayer1BetByAddress(uint256 money_match_id, address bettor) public view returns (uint) {\n    return player1_bets[money_match_id][bettor];\n  }\n\n  function getPlayer2BetByAddress(uint256 money_match_id, address bettor) public view returns (uint) {\n    return player2_bets[money_match_id][bettor];\n  }\n\n  function getHostCutPercentage(uint256 money_match_id) public view returns (uint) {\n    return money_matches[money_match_id].host_cut_percentage;\n  }\n\n  function getWinnerCutPercentage(uint256 money_match_id) public view returns (uint) {\n    return money_matches[money_match_id].winner_cut_percentage;\n  }\n\n  function getHostCut(uint256 money_match_id) public view returns (uint) {\n    uint256 total_pot = getPlayer1Pot(money_match_id).add(getPlayer2Pot(money_match_id));\n    return total_pot.mul(getHostCutPercentage(money_match_id)).div(100);\n  }\n\n  function getWinnerCut(uint256 money_match_id) public view returns (uint) {\n    uint256 total_pot = getPlayer1Pot(money_match_id).add(getPlayer2Pot(money_match_id));\n    return total_pot.mul(getWinnerCutPercentage(money_match_id)).div(100);\n  }\n\n  function isBetsOpen(uint256 money_match_id) public view returns (bool) {\n    return money_matches[money_match_id].state == MoneyMatchState.BetsOpen;\n  }\n\n  function isCashoutEnabled(uint256 money_match_id) public view returns (bool) {\n    return money_matches[money_match_id].state == MoneyMatchState.Player1Wins ||\n            money_matches[money_match_id].state == MoneyMatchState.Player2Wins;\n  }\n\n  function isPlayer1Wins(uint256 money_match_id) public view returns (bool) {\n    return money_matches[money_match_id].state == MoneyMatchState.Player1Wins;\n  }\n\n  function isPlayer2Wins(uint256 money_match_id) public view returns (bool) {\n    return money_matches[money_match_id].state == MoneyMatchState.Player2Wins;\n  }\n\n  function isAddressHost(uint256 money_match_id, address addr) public view returns (bool) {\n    return money_matches[money_match_id].host_addr == addr;\n  }\n\n  function isAddressPlayer1(uint256 money_match_id, address addr) public view returns (bool) {\n    return money_matches[money_match_id].player1_addr == addr;\n  }\n\n  function isAddressPlayer2(uint256 money_match_id, address addr) public view returns (bool) {\n    return money_matches[money_match_id].player2_addr == addr;\n  }\n\n  function hasCashedOutPlayer1Bet(uint256 money_match_id, address addr) public view returns (bool) {\n    return has_cashed_out_player1_bet[money_match_id][addr];\n  }\n\n  function hasCashedOutPlayer2Bet(uint256 money_match_id, address addr) public view returns (bool) {\n    return has_cashed_out_player2_bet[money_match_id][addr];\n  }\n\n  function hasHostCashedOut(uint256 money_match_id) public view returns (bool) {\n    return host_has_cashed_out[money_match_id];\n  }\n\n  function hasPlayer1CashedOut(uint256 money_match_id) public view returns (bool) {\n    return player1_has_cashed_out[money_match_id];\n  }\n\n  function hasPlayer2CashedOut(uint256 money_match_id) public view returns (bool) {\n    return player2_has_cashed_out[money_match_id];\n  }\n\n  // Modifiers\n  modifier betsAreOpen(uint256 money_match_id) {\n    require(isBetsOpen(money_match_id), \"Bets are currently closed for the selected money match.\");\n    _;\n  }\n\n  modifier cashoutIsEnabled(uint256 money_match_id) {\n    require(isCashoutEnabled(money_match_id), \"Cashout is currently closed for the selected money match.\");\n    _;\n  }\n\n  modifier player1Won(uint256 money_match_id) {\n    require(isPlayer1Wins(money_match_id), \"Player 1 has not won.\");\n    _;\n  }\n\n  modifier player2Won(uint256 money_match_id) {\n    require(isPlayer2Wins(money_match_id), \"Player 2 has not won.\");\n    _;\n  }\n\n  modifier playerIsValid(uint8 player) {\n    require(player == 1 || player == 2, \"Player selected is invalid, please 1 or 2.\");\n    _;\n  }\n\n  modifier hasNotCashedOutPlayer1Bet(uint256 money_match_id)\n  {\n    require(!hasCashedOutPlayer1Bet(money_match_id,msg.sender), \"Bettor has already cashed out his player 1 bet\");\n    _;\n  }\n\n  modifier hasNotCashedOutPlayer2Bet(uint256 money_match_id)\n  {\n    require(!hasCashedOutPlayer2Bet(money_match_id,msg.sender), \"Bettor has already cashed out his player 2 bet\");\n    _;\n  }\n\n  modifier hostHasNotCashedOut(uint256 money_match_id)\n  {\n    require(!hasHostCashedOut(money_match_id), \"Host has already cashed out\");\n    _;\n  }\n\n  modifier player1HasNotCashedOut(uint256 money_match_id)\n  {\n    require(!hasPlayer1CashedOut(money_match_id), \"Player 1 has already cashed out\");\n    _;\n  }\n\n  modifier player2HasNotCashedOut(uint256 money_match_id)\n  {\n    require(!hasPlayer2CashedOut(money_match_id), \"Player 2 has already cashed out\");\n    _;\n  }\n\n  modifier hasBettedForPlayer1(uint256 money_match_id)\n  {\n    require(getPlayer1BetByAddress(money_match_id, msg.sender) > 0, \"You have no bets placed for player 1\");\n    _;\n  }\n\n  modifier hasBettedForPlayer2(uint256 money_match_id)\n  {\n    require(getPlayer2BetByAddress(money_match_id, msg.sender) > 0, \"You have no bets placed for player 2\");\n    _;\n  }\n\n  modifier isHost(uint256 money_match_id)\n  {\n    require(isAddressHost(money_match_id,msg.sender), \"You have not the host of this money match\");\n    _;\n  }\n\n  modifier isPlayer1(uint256 money_match_id)\n  {\n    require(isAddressPlayer1(money_match_id,msg.sender), \"You have not the player 1 of this money match\");\n    _;\n  }\n\n  modifier isPlayer2(uint256 money_match_id)\n  {\n    require(isAddressPlayer2(money_match_id,msg.sender), \"You have not the player 2 of this money match\");\n    _;\n  }\n\n  // Write functions\n  function createMoneyMatch (\n    bytes32 player1_name,\n    bytes32 player2_name,\n    address player1_addr,\n    address player2_addr,\n    uint8 winner_cut_percentage,\n    uint8 host_cut_percentage,\n    string memory summary,\n    string memory image_ipfs_hash\n  ) public {\n    money_match_count = money_match_count.add(1);\n    money_matches[money_match_count] = MoneyMatch(\n      player1_name,\n      player2_name,\n      player1_addr,\n      player2_addr,\n      msg.sender,\n      winner_cut_percentage,\n      host_cut_percentage,\n      summary,\n      image_ipfs_hash,\n      MoneyMatchState.BetsOpen,\n      0,\n      0\n    );\n\n    emit MoneyMatchCreated (\n      money_match_count,\n      player1_name,\n      player2_name,\n      player1_addr,\n      player2_addr,\n      msg.sender,\n      winner_cut_percentage,\n      host_cut_percentage,\n      summary,\n      image_ipfs_hash\n    );\n  }\n\n  function bet(\n    uint256 money_match_id,\n    uint8 player\n  ) public payable\n    betsAreOpen(money_match_id)\n    playerIsValid(player)\n  {\n    if(player == 1)\n    {\n      player1_bets[money_match_id][msg.sender] = player1_bets[money_match_id][msg.sender].add(msg.value);\n      money_matches[money_match_id].player1_pot = money_matches[money_match_id].player1_pot.add(msg.value);\n    }\n    if(player == 2)\n    {\n      player2_bets[money_match_id][msg.sender] = player2_bets[money_match_id][msg.sender].add(msg.value);\n      money_matches[money_match_id].player2_pot = money_matches[money_match_id].player2_pot.add(msg.value);\n    }\n\n    emit BetSubmitted (\n      money_match_id,\n      msg.sender,\n      msg.value,\n      player\n    );\n  }\n\n  function cashOutPlayer1Bet(\n    uint256 money_match_id\n  ) public\n    cashoutIsEnabled(money_match_id)\n    hasNotCashedOutPlayer1Bet(money_match_id)\n    hasBettedForPlayer1(money_match_id)\n    player1Won(money_match_id)\n  {\n    uint256 cut_free_pot = getCutFreePot(money_match_id);\n    uint256 my_cashout = cut_free_pot.mul(getPlayer1BetByAddress(money_match_id, msg.sender)).div(getPlayer1Pot(money_match_id));\n    msg.sender.transfer(my_cashout);\n    has_cashed_out_player1_bet[money_match_id][msg.sender] = true;\n\n    emit BetCashout (\n      money_match_id,\n      msg.sender,\n      my_cashout,\n      1\n    );\n  }\n\n  function cashOutPlayer2Bet(\n    uint256 money_match_id\n  ) public\n    cashoutIsEnabled(money_match_id)\n    hasNotCashedOutPlayer2Bet(money_match_id)\n    hasBettedForPlayer2(money_match_id)\n    player2Won(money_match_id)\n  {\n    uint256 cut_free_pot = getCutFreePot(money_match_id);\n    uint256 my_cashout = cut_free_pot.mul(getPlayer2BetByAddress(money_match_id, msg.sender)).div(getPlayer2Pot(money_match_id));\n    msg.sender.transfer(my_cashout);\n    has_cashed_out_player2_bet[money_match_id][msg.sender] = true;\n\n    emit BetCashout (\n      money_match_id,\n      msg.sender,\n      my_cashout,\n      2\n    );\n  }\n\n  function cashOutHost(\n    uint256 money_match_id\n  ) public\n    cashoutIsEnabled(money_match_id)\n    hostHasNotCashedOut(money_match_id)\n    isHost(money_match_id)\n  {\n    uint256 my_cashout = getHostCut(money_match_id);\n    msg.sender.transfer(my_cashout);\n    host_has_cashed_out[money_match_id] = true;\n\n    emit HostCashout\n    (\n      money_match_id,\n      msg.sender,\n      my_cashout\n    );\n  }\n\n  function cashOutPlayer1(\n    uint256 money_match_id\n  ) public\n    cashoutIsEnabled(money_match_id)\n    player1HasNotCashedOut(money_match_id)\n    isPlayer1(money_match_id)\n    player1Won(money_match_id)\n  {\n    uint256 my_cashout = getWinnerCut(money_match_id);\n    msg.sender.transfer(my_cashout);\n    player1_has_cashed_out[money_match_id] = true;\n\n    emit PlayerCashout (\n      money_match_id,\n      msg.sender,\n      1,\n      my_cashout\n    );\n  }\n\n  function cashOutPlayer2(\n    uint256 money_match_id\n  ) public\n    cashoutIsEnabled(money_match_id)\n    player2HasNotCashedOut(money_match_id)\n    isPlayer2(money_match_id)\n    player2Won(money_match_id)\n  {\n    uint256 my_cashout = getWinnerCut(money_match_id);\n    msg.sender.transfer(my_cashout);\n    player2_has_cashed_out[money_match_id] = true;\n\n    emit PlayerCashout (\n      money_match_id,\n      msg.sender,\n      2,\n      my_cashout\n    );\n  }\n\n  function closeBets(uint256 money_match_id) public isHost(money_match_id) {\n    money_matches[money_match_id].state = MoneyMatchState.BetsClosed;\n\n    emit BetsClosed (\n      money_match_id\n    );\n  }\n\n  function player1Wins(uint256 money_match_id) public isHost(money_match_id) {\n    money_matches[money_match_id].state = MoneyMatchState.Player1Wins;\n\n    emit MoneyMatchFinished (\n      money_match_id,\n      1\n    );\n  }\n\n  function player2Wins(uint256 money_match_id) public isHost(money_match_id) {\n    money_matches[money_match_id].state = MoneyMatchState.Player2Wins;\n\n    emit MoneyMatchFinished (\n      money_match_id,\n      2\n    );\n  }\n}\n",
  "sourcePath": "/home/turupawn/Projects/Dapps/MoneyMatches/contracts/SimpleStorage.sol",
  "compiler": {
    "name": "solc",
    "version": "0.5.8+commit.23d335f2.Emscripten.clang"
  },
  "schemaVersion": "3.0.10",
  "updatedAt": "2019-08-10T02:01:56.235Z",
  "devdoc": {
    "methods": {}
  },
  "userdoc": {
    "methods": {}
  }
}