{
  "contractName": "SimpleStorage",
  "abi": [
    {
      "constant": true,
      "inputs": [
        {
          "name": "",
          "type": "uint256"
        },
        {
          "name": "",
          "type": "address"
        }
      ],
      "name": "has_cashed_out_player1_bet",
      "outputs": [
        {
          "name": "",
          "type": "bool"
        }
      ],
      "payable": false,
      "stateMutability": "view",
      "type": "function"
    },
    {
      "constant": true,
      "inputs": [
        {
          "name": "",
          "type": "uint256"
        },
        {
          "name": "",
          "type": "address"
        }
      ],
      "name": "player1_bets",
      "outputs": [
        {
          "name": "",
          "type": "uint256"
        }
      ],
      "payable": false,
      "stateMutability": "view",
      "type": "function"
    },
    {
      "constant": true,
      "inputs": [],
      "name": "money_match_count",
      "outputs": [
        {
          "name": "",
          "type": "uint256"
        }
      ],
      "payable": false,
      "stateMutability": "view",
      "type": "function"
    },
    {
      "constant": true,
      "inputs": [
        {
          "name": "",
          "type": "uint256"
        }
      ],
      "name": "player2_has_cashed_out",
      "outputs": [
        {
          "name": "",
          "type": "bool"
        }
      ],
      "payable": false,
      "stateMutability": "view",
      "type": "function"
    },
    {
      "constant": true,
      "inputs": [
        {
          "name": "",
          "type": "uint256"
        },
        {
          "name": "",
          "type": "address"
        }
      ],
      "name": "player2_bets",
      "outputs": [
        {
          "name": "",
          "type": "uint256"
        }
      ],
      "payable": false,
      "stateMutability": "view",
      "type": "function"
    },
    {
      "constant": true,
      "inputs": [
        {
          "name": "",
          "type": "uint256"
        }
      ],
      "name": "host_has_cashed_out",
      "outputs": [
        {
          "name": "",
          "type": "bool"
        }
      ],
      "payable": false,
      "stateMutability": "view",
      "type": "function"
    },
    {
      "constant": true,
      "inputs": [
        {
          "name": "",
          "type": "uint256"
        }
      ],
      "name": "player1_has_cashed_out",
      "outputs": [
        {
          "name": "",
          "type": "bool"
        }
      ],
      "payable": false,
      "stateMutability": "view",
      "type": "function"
    },
    {
      "constant": true,
      "inputs": [
        {
          "name": "",
          "type": "uint256"
        },
        {
          "name": "",
          "type": "address"
        }
      ],
      "name": "has_cashed_out_player2_bet",
      "outputs": [
        {
          "name": "",
          "type": "bool"
        }
      ],
      "payable": false,
      "stateMutability": "view",
      "type": "function"
    },
    {
      "constant": true,
      "inputs": [
        {
          "name": "",
          "type": "uint256"
        }
      ],
      "name": "money_matches",
      "outputs": [
        {
          "name": "player1_name",
          "type": "bytes32"
        },
        {
          "name": "player2_name",
          "type": "bytes32"
        },
        {
          "name": "player1_addr",
          "type": "address"
        },
        {
          "name": "player2_addr",
          "type": "address"
        },
        {
          "name": "host_addr",
          "type": "address"
        },
        {
          "name": "winner_cut_percentage",
          "type": "uint8"
        },
        {
          "name": "host_cut_percentage",
          "type": "uint8"
        },
        {
          "name": "summary",
          "type": "string"
        },
        {
          "name": "image_ipfs_hash",
          "type": "string"
        },
        {
          "name": "state",
          "type": "uint8"
        },
        {
          "name": "player1_pot",
          "type": "uint256"
        },
        {
          "name": "player2_pot",
          "type": "uint256"
        }
      ],
      "payable": false,
      "stateMutability": "view",
      "type": "function"
    },
    {
      "anonymous": false,
      "inputs": [
        {
          "indexed": false,
          "name": "id",
          "type": "uint256"
        },
        {
          "indexed": false,
          "name": "player1_name",
          "type": "bytes32"
        },
        {
          "indexed": false,
          "name": "player2_name",
          "type": "bytes32"
        },
        {
          "indexed": false,
          "name": "player1_addr",
          "type": "address"
        },
        {
          "indexed": false,
          "name": "player2_addr",
          "type": "address"
        },
        {
          "indexed": false,
          "name": "host_addr",
          "type": "address"
        },
        {
          "indexed": false,
          "name": "winner_cut_percentage",
          "type": "uint8"
        },
        {
          "indexed": false,
          "name": "host_cut_percentage",
          "type": "uint8"
        },
        {
          "indexed": false,
          "name": "summary",
          "type": "string"
        },
        {
          "indexed": false,
          "name": "image_ipfs_hash",
          "type": "string"
        }
      ],
      "name": "MoneyMatchCreated",
      "type": "event"
    },
    {
      "anonymous": false,
      "inputs": [
        {
          "indexed": false,
          "name": "money_match_id",
          "type": "uint256"
        },
        {
          "indexed": false,
          "name": "bettor",
          "type": "address"
        },
        {
          "indexed": false,
          "name": "amount",
          "type": "uint256"
        },
        {
          "indexed": false,
          "name": "player",
          "type": "uint8"
        }
      ],
      "name": "BetSubmitted",
      "type": "event"
    },
    {
      "anonymous": false,
      "inputs": [
        {
          "indexed": false,
          "name": "money_match_id",
          "type": "uint256"
        },
        {
          "indexed": false,
          "name": "bettor",
          "type": "address"
        },
        {
          "indexed": false,
          "name": "amount",
          "type": "uint256"
        },
        {
          "indexed": false,
          "name": "player",
          "type": "uint8"
        }
      ],
      "name": "BetCashout",
      "type": "event"
    },
    {
      "anonymous": false,
      "inputs": [
        {
          "indexed": false,
          "name": "money_match_id",
          "type": "uint256"
        },
        {
          "indexed": false,
          "name": "host_addr",
          "type": "address"
        },
        {
          "indexed": false,
          "name": "amount",
          "type": "uint256"
        }
      ],
      "name": "HostCashout",
      "type": "event"
    },
    {
      "anonymous": false,
      "inputs": [
        {
          "indexed": false,
          "name": "money_match_id",
          "type": "uint256"
        },
        {
          "indexed": false,
          "name": "player_addr",
          "type": "address"
        },
        {
          "indexed": false,
          "name": "player",
          "type": "uint8"
        },
        {
          "indexed": false,
          "name": "amount",
          "type": "uint256"
        }
      ],
      "name": "PlayerCashout",
      "type": "event"
    },
    {
      "anonymous": false,
      "inputs": [
        {
          "indexed": false,
          "name": "money_match_id",
          "type": "uint256"
        }
      ],
      "name": "BetsClosed",
      "type": "event"
    },
    {
      "anonymous": false,
      "inputs": [
        {
          "indexed": false,
          "name": "money_match_id",
          "type": "uint256"
        },
        {
          "indexed": false,
          "name": "player_won",
          "type": "uint8"
        }
      ],
      "name": "MoneyMatchFinished",
      "type": "event"
    },
    {
      "constant": true,
      "inputs": [
        {
          "name": "money_match_id",
          "type": "uint256"
        }
      ],
      "name": "getPlayer1Name",
      "outputs": [
        {
          "name": "",
          "type": "bytes32"
        }
      ],
      "payable": false,
      "stateMutability": "view",
      "type": "function"
    },
    {
      "constant": true,
      "inputs": [
        {
          "name": "money_match_id",
          "type": "uint256"
        }
      ],
      "name": "getPlayer2Name",
      "outputs": [
        {
          "name": "",
          "type": "bytes32"
        }
      ],
      "payable": false,
      "stateMutability": "view",
      "type": "function"
    },
    {
      "constant": true,
      "inputs": [
        {
          "name": "money_match_id",
          "type": "uint256"
        }
      ],
      "name": "getSummary",
      "outputs": [
        {
          "name": "",
          "type": "string"
        }
      ],
      "payable": false,
      "stateMutability": "view",
      "type": "function"
    },
    {
      "constant": true,
      "inputs": [
        {
          "name": "money_match_id",
          "type": "uint256"
        }
      ],
      "name": "getImageIPFSHash",
      "outputs": [
        {
          "name": "",
          "type": "string"
        }
      ],
      "payable": false,
      "stateMutability": "view",
      "type": "function"
    },
    {
      "constant": true,
      "inputs": [
        {
          "name": "money_match_id",
          "type": "uint256"
        }
      ],
      "name": "getPlayer1Pot",
      "outputs": [
        {
          "name": "",
          "type": "uint256"
        }
      ],
      "payable": false,
      "stateMutability": "view",
      "type": "function"
    },
    {
      "constant": true,
      "inputs": [
        {
          "name": "money_match_id",
          "type": "uint256"
        }
      ],
      "name": "getPlayer2Pot",
      "outputs": [
        {
          "name": "",
          "type": "uint256"
        }
      ],
      "payable": false,
      "stateMutability": "view",
      "type": "function"
    },
    {
      "constant": true,
      "inputs": [
        {
          "name": "money_match_id",
          "type": "uint256"
        }
      ],
      "name": "getCutFreePot",
      "outputs": [
        {
          "name": "",
          "type": "uint256"
        }
      ],
      "payable": false,
      "stateMutability": "view",
      "type": "function"
    },
    {
      "constant": true,
      "inputs": [
        {
          "name": "money_match_id",
          "type": "uint256"
        },
        {
          "name": "bettor",
          "type": "address"
        }
      ],
      "name": "getPlayer1BetByAddress",
      "outputs": [
        {
          "name": "",
          "type": "uint256"
        }
      ],
      "payable": false,
      "stateMutability": "view",
      "type": "function"
    },
    {
      "constant": true,
      "inputs": [
        {
          "name": "money_match_id",
          "type": "uint256"
        },
        {
          "name": "bettor",
          "type": "address"
        }
      ],
      "name": "getPlayer2BetByAddress",
      "outputs": [
        {
          "name": "",
          "type": "uint256"
        }
      ],
      "payable": false,
      "stateMutability": "view",
      "type": "function"
    },
    {
      "constant": true,
      "inputs": [
        {
          "name": "money_match_id",
          "type": "uint256"
        }
      ],
      "name": "getHostCutPercentage",
      "outputs": [
        {
          "name": "",
          "type": "uint256"
        }
      ],
      "payable": false,
      "stateMutability": "view",
      "type": "function"
    },
    {
      "constant": true,
      "inputs": [
        {
          "name": "money_match_id",
          "type": "uint256"
        }
      ],
      "name": "getWinnerCutPercentage",
      "outputs": [
        {
          "name": "",
          "type": "uint256"
        }
      ],
      "payable": false,
      "stateMutability": "view",
      "type": "function"
    },
    {
      "constant": true,
      "inputs": [
        {
          "name": "money_match_id",
          "type": "uint256"
        }
      ],
      "name": "getHostCut",
      "outputs": [
        {
          "name": "",
          "type": "uint256"
        }
      ],
      "payable": false,
      "stateMutability": "view",
      "type": "function"
    },
    {
      "constant": true,
      "inputs": [
        {
          "name": "money_match_id",
          "type": "uint256"
        }
      ],
      "name": "getWinnerCut",
      "outputs": [
        {
          "name": "",
          "type": "uint256"
        }
      ],
      "payable": false,
      "stateMutability": "view",
      "type": "function"
    },
    {
      "constant": true,
      "inputs": [
        {
          "name": "money_match_id",
          "type": "uint256"
        }
      ],
      "name": "isBetsOpen",
      "outputs": [
        {
          "name": "",
          "type": "bool"
        }
      ],
      "payable": false,
      "stateMutability": "view",
      "type": "function"
    },
    {
      "constant": true,
      "inputs": [
        {
          "name": "money_match_id",
          "type": "uint256"
        }
      ],
      "name": "isCashoutEnabled",
      "outputs": [
        {
          "name": "",
          "type": "bool"
        }
      ],
      "payable": false,
      "stateMutability": "view",
      "type": "function"
    },
    {
      "constant": true,
      "inputs": [
        {
          "name": "money_match_id",
          "type": "uint256"
        }
      ],
      "name": "isPlayer1Wins",
      "outputs": [
        {
          "name": "",
          "type": "bool"
        }
      ],
      "payable": false,
      "stateMutability": "view",
      "type": "function"
    },
    {
      "constant": true,
      "inputs": [
        {
          "name": "money_match_id",
          "type": "uint256"
        }
      ],
      "name": "isPlayer2Wins",
      "outputs": [
        {
          "name": "",
          "type": "bool"
        }
      ],
      "payable": false,
      "stateMutability": "view",
      "type": "function"
    },
    {
      "constant": true,
      "inputs": [
        {
          "name": "money_match_id",
          "type": "uint256"
        },
        {
          "name": "addr",
          "type": "address"
        }
      ],
      "name": "isAddressHost",
      "outputs": [
        {
          "name": "",
          "type": "bool"
        }
      ],
      "payable": false,
      "stateMutability": "view",
      "type": "function"
    },
    {
      "constant": true,
      "inputs": [
        {
          "name": "money_match_id",
          "type": "uint256"
        },
        {
          "name": "addr",
          "type": "address"
        }
      ],
      "name": "isAddressPlayer1",
      "outputs": [
        {
          "name": "",
          "type": "bool"
        }
      ],
      "payable": false,
      "stateMutability": "view",
      "type": "function"
    },
    {
      "constant": true,
      "inputs": [
        {
          "name": "money_match_id",
          "type": "uint256"
        },
        {
          "name": "addr",
          "type": "address"
        }
      ],
      "name": "isAddressPlayer2",
      "outputs": [
        {
          "name": "",
          "type": "bool"
        }
      ],
      "payable": false,
      "stateMutability": "view",
      "type": "function"
    },
    {
      "constant": true,
      "inputs": [
        {
          "name": "money_match_id",
          "type": "uint256"
        },
        {
          "name": "addr",
          "type": "address"
        }
      ],
      "name": "hasCashedOutPlayer1Bet",
      "outputs": [
        {
          "name": "",
          "type": "bool"
        }
      ],
      "payable": false,
      "stateMutability": "view",
      "type": "function"
    },
    {
      "constant": true,
      "inputs": [
        {
          "name": "money_match_id",
          "type": "uint256"
        },
        {
          "name": "addr",
          "type": "address"
        }
      ],
      "name": "hasCashedOutPlayer2Bet",
      "outputs": [
        {
          "name": "",
          "type": "bool"
        }
      ],
      "payable": false,
      "stateMutability": "view",
      "type": "function"
    },
    {
      "constant": true,
      "inputs": [
        {
          "name": "money_match_id",
          "type": "uint256"
        }
      ],
      "name": "hasHostCashedOut",
      "outputs": [
        {
          "name": "",
          "type": "bool"
        }
      ],
      "payable": false,
      "stateMutability": "view",
      "type": "function"
    },
    {
      "constant": true,
      "inputs": [
        {
          "name": "money_match_id",
          "type": "uint256"
        }
      ],
      "name": "hasPlayer1CashedOut",
      "outputs": [
        {
          "name": "",
          "type": "bool"
        }
      ],
      "payable": false,
      "stateMutability": "view",
      "type": "function"
    },
    {
      "constant": true,
      "inputs": [
        {
          "name": "money_match_id",
          "type": "uint256"
        }
      ],
      "name": "hasPlayer2CashedOut",
      "outputs": [
        {
          "name": "",
          "type": "bool"
        }
      ],
      "payable": false,
      "stateMutability": "view",
      "type": "function"
    },
    {
      "constant": false,
      "inputs": [
        {
          "name": "player1_name",
          "type": "bytes32"
        },
        {
          "name": "player2_name",
          "type": "bytes32"
        },
        {
          "name": "player1_addr",
          "type": "address"
        },
        {
          "name": "player2_addr",
          "type": "address"
        },
        {
          "name": "winner_cut_percentage",
          "type": "uint8"
        },
        {
          "name": "host_cut_percentage",
          "type": "uint8"
        },
        {
          "name": "summary",
          "type": "string"
        },
        {
          "name": "image_ipfs_hash",
          "type": "string"
        }
      ],
      "name": "createMoneyMatch",
      "outputs": [],
      "payable": false,
      "stateMutability": "nonpayable",
      "type": "function"
    },
    {
      "constant": false,
      "inputs": [
        {
          "name": "money_match_id",
          "type": "uint256"
        },
        {
          "name": "player",
          "type": "uint8"
        }
      ],
      "name": "bet",
      "outputs": [],
      "payable": true,
      "stateMutability": "payable",
      "type": "function"
    },
    {
      "constant": false,
      "inputs": [
        {
          "name": "money_match_id",
          "type": "uint256"
        }
      ],
      "name": "cashOutPlayer1Bet",
      "outputs": [],
      "payable": false,
      "stateMutability": "nonpayable",
      "type": "function"
    },
    {
      "constant": false,
      "inputs": [
        {
          "name": "money_match_id",
          "type": "uint256"
        }
      ],
      "name": "cashOutPlayer2Bet",
      "outputs": [],
      "payable": false,
      "stateMutability": "nonpayable",
      "type": "function"
    },
    {
      "constant": false,
      "inputs": [
        {
          "name": "money_match_id",
          "type": "uint256"
        }
      ],
      "name": "cashOutHost",
      "outputs": [],
      "payable": false,
      "stateMutability": "nonpayable",
      "type": "function"
    },
    {
      "constant": false,
      "inputs": [
        {
          "name": "money_match_id",
          "type": "uint256"
        }
      ],
      "name": "cashOutPlayer1",
      "outputs": [],
      "payable": false,
      "stateMutability": "nonpayable",
      "type": "function"
    },
    {
      "constant": false,
      "inputs": [
        {
          "name": "money_match_id",
          "type": "uint256"
        }
      ],
      "name": "cashOutPlayer2",
      "outputs": [],
      "payable": false,
      "stateMutability": "nonpayable",
      "type": "function"
    },
    {
      "constant": false,
      "inputs": [
        {
          "name": "money_match_id",
          "type": "uint256"
        }
      ],
      "name": "closeBets",
      "outputs": [],
      "payable": false,
      "stateMutability": "nonpayable",
      "type": "function"
    },
    {
      "constant": false,
      "inputs": [
        {
          "name": "money_match_id",
          "type": "uint256"
        }
      ],
      "name": "player1Wins",
      "outputs": [],
      "payable": false,
      "stateMutability": "nonpayable",
      "type": "function"
    },
    {
      "constant": false,
      "inputs": [
        {
          "name": "money_match_id",
          "type": "uint256"
        }
      ],
      "name": "player2Wins",
      "outputs": [],
      "payable": false,
      "stateMutability": "nonpayable",
      "type": "function"
    }
  ],
  "bytecode": "0x608060405234801561001057600080fd5b50613dbc806100206000396000f3fe6080604052600436106102675760003560e01c8063a584105c11610144578063e65a6081116100b6578063eccfcb621161007a578063eccfcb621461113f578063f04cb1d914611343578063f0a904c714611396578063f246720c146113d1578063fab74ad714611420578063ffa954471461145b57610267565b8063e65a608114610e21578063e819906614610e5c578063e89dff5b1461102a578063e9f3ac391461107d578063eab9e719146110cc57610267565b8063b762bd4811610108578063b762bd4814610c1a578063bd46959614610c69578063c0ad4ee414610d1d578063c437a0cd14610d58578063cc33f94314610d93578063e120028714610dce57610267565b8063a584105c146109e2578063a6a4017e14610a31578063ad962eed14610aa4578063aee1446014610b13578063b5a866cd14610bc757610267565b80634d9de745116101dd57806375570ea7116101a157806375570ea7146108185780637624a67f1461085357806380c541d81461087e57806387d9e898146108cd57806393f5faa41461093c57806399daed201461098f57610267565b80634d9de745146106795780635ad7413a146106ec578063635eb48b1461072757806369965af8146107765780636a1da2a8146107c557610267565b80631220e2861161022f5780631220e2861461047357806313b9d975146104c25780631a760f1b146105155780632bf280b5146105645780633908f4e1146105b75780633fa14f3f1461062657610267565b80630157e1aa1461026c5780630528b43d146102df57806309736de91461031a578063097b99101461038d57806310d458ac14610400575b600080fd5b34801561027857600080fd5b506102c56004803603604081101561028f57600080fd5b8101908080359060200190929190803573ffffffffffffffffffffffffffffffffffffffff1690602001909291905050506114ca565b604051808215151515815260200191505060405180910390f35b3480156102eb57600080fd5b506103186004803603602081101561030257600080fd5b8101908080359060200190929190505050611532565b005b34801561032657600080fd5b506103736004803603604081101561033d57600080fd5b8101908080359060200190929190803573ffffffffffffffffffffffffffffffffffffffff1690602001909291905050506117f1565b604051808215151515815260200191505060405180910390f35b34801561039957600080fd5b506103e6600480360360408110156103b057600080fd5b8101908080359060200190929190803573ffffffffffffffffffffffffffffffffffffffff169060200190929190505050611820565b604051808215151515815260200191505060405180910390f35b34801561040c57600080fd5b506104596004803603604081101561042357600080fd5b8101908080359060200190929190803573ffffffffffffffffffffffffffffffffffffffff16906020019092919050505061188e565b604051808215151515815260200191505060405180910390f35b34801561047f57600080fd5b506104ac6004803603602081101561049657600080fd5b81019080803590602001909291905050506118fc565b6040518082815260200191505060405180910390f35b3480156104ce57600080fd5b506104fb600480360360208110156104e557600080fd5b810190808035906020019092919050505061195a565b604051808215151515815260200191505060405180910390f35b34801561052157600080fd5b5061054e6004803603602081101561053857600080fd5b8101908080359060200190929190505050611984565b6040518082815260200191505060405180910390f35b34801561057057600080fd5b5061059d6004803603602081101561058757600080fd5b81019080803590602001909291905050506119a3565b604051808215151515815260200191505060405180910390f35b3480156105c357600080fd5b50610610600480360360408110156105da57600080fd5b8101908080359060200190929190803573ffffffffffffffffffffffffffffffffffffffff1690602001909291905050506119cd565b6040518082815260200191505060405180910390f35b34801561063257600080fd5b5061065f6004803603602081101561064957600080fd5b81019080803590602001909291905050506119f2565b604051808215151515815260200191505060405180910390f35b34801561068557600080fd5b506106d26004803603604081101561069c57600080fd5b8101908080359060200190929190803573ffffffffffffffffffffffffffffffffffffffff169060200190929190505050611a37565b604051808215151515815260200191505060405180910390f35b3480156106f857600080fd5b506107256004803603602081101561070f57600080fd5b8101908080359060200190929190505050611a9f565b005b34801561073357600080fd5b506107606004803603602081101561074a57600080fd5b8101908080359060200190929190505050611dbd565b6040518082815260200191505060405180910390f35b34801561078257600080fd5b506107af6004803603602081101561079957600080fd5b8101908080359060200190929190505050611ddc565b6040518082815260200191505060405180910390f35b3480156107d157600080fd5b506107fe600480360360208110156107e857600080fd5b8101908080359060200190929190505050611e0b565b604051808215151515815260200191505060405180910390f35b34801561082457600080fd5b506108516004803603602081101561083b57600080fd5b8101908080359060200190929190505050611e92565b005b34801561085f57600080fd5b50610868611f64565b6040518082815260200191505060405180910390f35b34801561088a57600080fd5b506108b7600480360360208110156108a157600080fd5b8101908080359060200190929190505050611f6a565b6040518082815260200191505060405180910390f35b3480156108d957600080fd5b50610926600480360360408110156108f057600080fd5b8101908080359060200190929190803573ffffffffffffffffffffffffffffffffffffffff169060200190929190505050611f89565b6040518082815260200191505060405180910390f35b34801561094857600080fd5b506109756004803603602081101561095f57600080fd5b8101908080359060200190929190505050611fe4565b604051808215151515815260200191505060405180910390f35b34801561099b57600080fd5b506109c8600480360360208110156109b257600080fd5b8101908080359060200190929190505050612029565b604051808215151515815260200191505060405180910390f35b3480156109ee57600080fd5b50610a1b60048036036020811015610a0557600080fd5b8101908080359060200190929190505050612049565b6040518082815260200191505060405180910390f35b348015610a3d57600080fd5b50610a8a60048036036040811015610a5457600080fd5b8101908080359060200190929190803573ffffffffffffffffffffffffffffffffffffffff169060200190929190505050612068565b604051808215151515815260200191505060405180910390f35b348015610ab057600080fd5b50610afd60048036036040811015610ac757600080fd5b8101908080359060200190929190803573ffffffffffffffffffffffffffffffffffffffff1690602001909291905050506120d6565b6040518082815260200191505060405180910390f35b348015610b1f57600080fd5b50610b4c60048036036020811015610b3657600080fd5b81019080803590602001909291905050506120fb565b6040518080602001828103825283818151815260200191508051906020019080838360005b83811015610b8c578082015181840152602081019050610b71565b50505050905090810190601f168015610bb95780820380516001836020036101000a031916815260200191505b509250505060405180910390f35b348015610bd357600080fd5b50610c0060048036036020811015610bea57600080fd5b81019080803590602001909291905050506121b2565b604051808215151515815260200191505060405180910390f35b348015610c2657600080fd5b50610c5360048036036020811015610c3d57600080fd5b81019080803590602001909291905050506121d2565b6040518082815260200191505060405180910390f35b348015610c7557600080fd5b50610ca260048036036020811015610c8c57600080fd5b8101908080359060200190929190505050612230565b6040518080602001828103825283818151815260200191508051906020019080838360005b83811015610ce2578082015181840152602081019050610cc7565b50505050905090810190601f168015610d0f5780820380516001836020036101000a031916815260200191505b509250505060405180910390f35b348015610d2957600080fd5b50610d5660048036036020811015610d4057600080fd5b81019080803590602001909291905050506122e7565b005b610d9160048036036040811015610d6e57600080fd5b8101908080359060200190929190803560ff1690602001909291905050506123c5565b005b348015610d9f57600080fd5b50610dcc60048036036020811015610db657600080fd5b8101908080359060200190929190505050612720565b005b348015610dda57600080fd5b50610e0760048036036020811015610df157600080fd5b8101908080359060200190929190505050612a3e565b604051808215151515815260200191505060405180910390f35b348015610e2d57600080fd5b50610e5a60048036036020811015610e4457600080fd5b8101908080359060200190929190505050612a82565b005b348015610e6857600080fd5b506110286004803603610100811015610e8057600080fd5b810190808035906020019092919080359060200190929190803573ffffffffffffffffffffffffffffffffffffffff169060200190929190803573ffffffffffffffffffffffffffffffffffffffff169060200190929190803560ff169060200190929190803560ff16906020019092919080359060200190640100000000811115610f0b57600080fd5b820183602082011115610f1d57600080fd5b80359060200191846001830284011164010000000083111715610f3f57600080fd5b91908080601f016020809104026020016040519081016040528093929190818152602001838380828437600081840152601f19601f82011690508083019250505050505050919291929080359060200190640100000000811115610fa257600080fd5b820183602082011115610fb457600080fd5b80359060200191846001830284011164010000000083111715610fd657600080fd5b91908080601f016020809104026020016040519081016040528093929190818152602001838380828437600081840152601f19601f820116905080830192505050505050509192919290505050612b60565b005b34801561103657600080fd5b506110636004803603602081101561104d57600080fd5b8101908080359060200190929190505050612fc5565b604051808215151515815260200191505060405180910390f35b34801561108957600080fd5b506110b6600480360360208110156110a057600080fd5b8101908080359060200190929190505050612fe5565b6040518082815260200191505060405180910390f35b3480156110d857600080fd5b50611125600480360360408110156110ef57600080fd5b8101908080359060200190929190803573ffffffffffffffffffffffffffffffffffffffff169060200190929190505050613014565b604051808215151515815260200191505060405180910390f35b34801561114b57600080fd5b506111786004803603602081101561116257600080fd5b8101908080359060200190929190505050613043565b604051808d81526020018c81526020018b73ffffffffffffffffffffffffffffffffffffffff1673ffffffffffffffffffffffffffffffffffffffff1681526020018a73ffffffffffffffffffffffffffffffffffffffff1673ffffffffffffffffffffffffffffffffffffffff1681526020018973ffffffffffffffffffffffffffffffffffffffff1673ffffffffffffffffffffffffffffffffffffffff1681526020018860ff1660ff1681526020018760ff1660ff168152602001806020018060200186600481111561124a57fe5b60ff168152602001858152602001848152602001838103835288818151815260200191508051906020019080838360005b8381101561129657808201518184015260208101905061127b565b50505050905090810190601f1680156112c35780820380516001836020036101000a031916815260200191505b50838103825287818151815260200191508051906020019080838360005b838110156112fc5780820151818401526020810190506112e1565b50505050905090810190601f1680156113295780820380516001836020036101000a031916815260200191505b509e50505050505050505050505050505060405180910390f35b34801561134f57600080fd5b5061137c6004803603602081101561136657600080fd5b810190808035906020019092919050505061325a565b604051808215151515815260200191505060405180910390f35b3480156113a257600080fd5b506113cf600480360360208110156113b957600080fd5b8101908080359060200190929190505050613284565b005b3480156113dd57600080fd5b5061140a600480360360208110156113f457600080fd5b81019080803590602001909291905050506134ba565b6040518082815260200191505060405180910390f35b34801561142c57600080fd5b506114596004803603602081101561144357600080fd5b81019080803590602001909291905050506135c9565b005b34801561146757600080fd5b506114b46004803603604081101561147e57600080fd5b8101908080359060200190929190803573ffffffffffffffffffffffffffffffffffffffff169060200190929190505050613888565b6040518082815260200191505060405180910390f35b60006004600084815260200190815260200160002060008373ffffffffffffffffffffffffffffffffffffffff1673ffffffffffffffffffffffffffffffffffffffff16815260200190815260200160002060009054906101000a900460ff16905092915050565b8061153c81611e0b565b611591576040517f08c379a0000000000000000000000000000000000000000000000000000000008152600401808060200182810382526039815260200180613c756039913960400191505060405180910390fd5b8161159b8161325a565b1561160e576040517f08c379a000000000000000000000000000000000000000000000000000000000815260040180806020018281038252601f8152602001807f506c6179657220322068617320616c726561647920636173686564206f75740081525060200191505060405180910390fd5b826116198133611820565b61166e576040517f08c379a000000000000000000000000000000000000000000000000000000000815260040180806020018281038252602d815260200180613d64602d913960400191505060405180910390fd5b8361167881612a3e565b6116ea576040517f08c379a00000000000000000000000000000000000000000000000000000000081526004018080602001828103825260158152602001807f506c61796572203220686173206e6f7420776f6e2e000000000000000000000081525060200191505060405180910390fd5b60006116f5866118fc565b90503373ffffffffffffffffffffffffffffffffffffffff166108fc829081150290604051600060405180830381858888f1935050505015801561173d573d6000803e3d6000fd5b5060016008600088815260200190815260200160002060006101000a81548160ff0219169083151502179055507f19570f66c72204bf4894b61c2c987a7e607c3fae1d725781ceadff4a0d8deb008633600284604051808581526020018473ffffffffffffffffffffffffffffffffffffffff1673ffffffffffffffffffffffffffffffffffffffff1681526020018360ff16815260200182815260200194505050505060405180910390a1505050505050565b60046020528160005260406000206020528060005260406000206000915091509054906101000a900460ff1681565b60008173ffffffffffffffffffffffffffffffffffffffff1660008085815260200190815260200160002060030160009054906101000a900473ffffffffffffffffffffffffffffffffffffffff1673ffffffffffffffffffffffffffffffffffffffff1614905092915050565b60008173ffffffffffffffffffffffffffffffffffffffff1660008085815260200190815260200160002060020160009054906101000a900473ffffffffffffffffffffffffffffffffffffffff1673ffffffffffffffffffffffffffffffffffffffff1614905092915050565b60008061192261190b84611f6a565b61191485611984565b6138e390919063ffffffff16565b9050611952606461194461193586612fe5565b8461396b90919063ffffffff16565b6139f190919063ffffffff16565b915050919050565b60006007600083815260200190815260200160002060009054906101000a900460ff169050919050565b6000806000838152602001908152602001600020600801549050919050565b60006006600083815260200190815260200160002060009054906101000a900460ff169050919050565b6002602052816000526040600020602052806000526040600020600091509150505481565b600060016004811115611a0157fe5b60008084815260200190815260200160002060070160009054906101000a900460ff166004811115611a2f57fe5b149050919050565b60006005600084815260200190815260200160002060008373ffffffffffffffffffffffffffffffffffffffff1673ffffffffffffffffffffffffffffffffffffffff16815260200190815260200160002060009054906101000a900460ff16905092915050565b80611aa981611e0b565b611afe576040517f08c379a0000000000000000000000000000000000000000000000000000000008152600401808060200182810382526039815260200180613c756039913960400191505060405180910390fd5b81611b098133611a37565b15611b5f576040517f08c379a000000000000000000000000000000000000000000000000000000000815260040180806020018281038252602e815260200180613cae602e913960400191505060405180910390fd5b826000611b6c8233611f89565b11611bc2576040517f08c379a0000000000000000000000000000000000000000000000000000000008152600401808060200182810382526024815260200180613c516024913960400191505060405180910390fd5b83611bcc81612a3e565b611c3e576040517f08c379a00000000000000000000000000000000000000000000000000000000081526004018080602001828103825260158152602001807f506c61796572203220686173206e6f7420776f6e2e000000000000000000000081525060200191505060405180910390fd5b6000611c49866134ba565b90506000611c83611c5988611f6a565b611c75611c668a33611f89565b8561396b90919063ffffffff16565b6139f190919063ffffffff16565b90503373ffffffffffffffffffffffffffffffffffffffff166108fc829081150290604051600060405180830381858888f19350505050158015611ccb573d6000803e3d6000fd5b5060016005600089815260200190815260200160002060003373ffffffffffffffffffffffffffffffffffffffff1673ffffffffffffffffffffffffffffffffffffffff16815260200190815260200160002060006101000a81548160ff0219169083151502179055507f87d3348e76f7c90e52e613d5cec8a0af2ffcb9f3b2acd05c2d39f0f7b93124b08733836002604051808581526020018473ffffffffffffffffffffffffffffffffffffffff1673ffffffffffffffffffffffffffffffffffffffff1681526020018381526020018260ff16815260200194505050505060405180910390a150505050505050565b6000806000838152602001908152602001600020600001549050919050565b600080600083815260200190815260200160002060040160159054906101000a900460ff1660ff169050919050565b600060036004811115611e1a57fe5b60008084815260200190815260200160002060070160009054906101000a900460ff166004811115611e4857fe5b1480611e8b5750600480811115611e5b57fe5b60008084815260200190815260200160002060070160009054906101000a900460ff166004811115611e8957fe5b145b9050919050565b80611e9d8133612068565b611ef2576040517f08c379a0000000000000000000000000000000000000000000000000000000008152600401808060200182810382526029815260200180613baf6029913960400191505060405180910390fd5b600260008084815260200190815260200160002060070160006101000a81548160ff02191690836004811115611f2457fe5b02179055507facc870375c6f27f32904409b6de22b15406d297f25fffc2ebdef807854ee8588826040518082815260200191505060405180910390a15050565b60015481565b6000806000838152602001908152602001600020600901549050919050565b60006003600084815260200190815260200160002060008373ffffffffffffffffffffffffffffffffffffffff1673ffffffffffffffffffffffffffffffffffffffff16815260200190815260200160002054905092915050565b600060036004811115611ff357fe5b60008084815260200190815260200160002060070160009054906101000a900460ff16600481111561202157fe5b149050919050565b60086020528060005260406000206000915054906101000a900460ff1681565b6000806000838152602001908152602001600020600101549050919050565b60008173ffffffffffffffffffffffffffffffffffffffff1660008085815260200190815260200160002060040160009054906101000a900473ffffffffffffffffffffffffffffffffffffffff1673ffffffffffffffffffffffffffffffffffffffff1614905092915050565b6003602052816000526040600020602052806000526040600020600091509150505481565b60606000808381526020019081526020016000206005018054600181600116156101000203166002900480601f0160208091040260200160405190810160405280929190818152602001828054600181600116156101000203166002900480156121a65780601f1061217b576101008083540402835291602001916121a6565b820191906000526020600020905b81548152906001019060200180831161218957829003601f168201915b50505050509050919050565b60066020528060005260406000206000915054906101000a900460ff1681565b6000806121f86121e184611f6a565b6121ea85611984565b6138e390919063ffffffff16565b9050612228606461221a61220b86611ddc565b8461396b90919063ffffffff16565b6139f190919063ffffffff16565b915050919050565b60606000808381526020019081526020016000206006018054600181600116156101000203166002900480601f0160208091040260200160405190810160405280929190818152602001828054600181600116156101000203166002900480156122db5780601f106122b0576101008083540402835291602001916122db565b820191906000526020600020905b8154815290600101906020018083116122be57829003601f168201915b50505050509050919050565b806122f28133612068565b612347576040517f08c379a0000000000000000000000000000000000000000000000000000000008152600401808060200182810382526029815260200180613baf6029913960400191505060405180910390fd5b600360008084815260200190815260200160002060070160006101000a81548160ff0219169083600481111561237957fe5b02179055507f2ef65fd406711d61818757b2dc79533a4eacd72eb700b63ee84a30b11ed37a52826001604051808381526020018260ff1681526020019250505060405180910390a15050565b816123cf816119f2565b612424576040517f08c379a0000000000000000000000000000000000000000000000000000000008152600401808060200182810382526037815260200180613d2d6037913960400191505060405180910390fd5b8160018160ff16148061243a575060028160ff16145b61248f576040517f08c379a000000000000000000000000000000000000000000000000000000000815260040180806020018281038252602a815260200180613bd8602a913960400191505060405180910390fd5b60018360ff161415612594576124fe346002600087815260200190815260200160002060003373ffffffffffffffffffffffffffffffffffffffff1673ffffffffffffffffffffffffffffffffffffffff168152602001908152602001600020546138e390919063ffffffff16565b6002600086815260200190815260200160002060003373ffffffffffffffffffffffffffffffffffffffff1673ffffffffffffffffffffffffffffffffffffffff1681526020019081526020016000208190555061257a34600080878152602001908152602001600020600801546138e390919063ffffffff16565b600080868152602001908152602001600020600801819055505b60028360ff16141561269957612603346003600087815260200190815260200160002060003373ffffffffffffffffffffffffffffffffffffffff1673ffffffffffffffffffffffffffffffffffffffff168152602001908152602001600020546138e390919063ffffffff16565b6003600086815260200190815260200160002060003373ffffffffffffffffffffffffffffffffffffffff1673ffffffffffffffffffffffffffffffffffffffff1681526020019081526020016000208190555061267f34600080878152602001908152602001600020600901546138e390919063ffffffff16565b600080868152602001908152602001600020600901819055505b7f2ad3d2804dcc8a5c8146b55ad4e07d4bcddec2592666927bcb3bbbf11d1f703984333486604051808581526020018473ffffffffffffffffffffffffffffffffffffffff1673ffffffffffffffffffffffffffffffffffffffff1681526020018381526020018260ff1660ff16815260200194505050505060405180910390a150505050565b8061272a81611e0b565b61277f576040517f08c379a0000000000000000000000000000000000000000000000000000000008152600401808060200182810382526039815260200180613c756039913960400191505060405180910390fd5b8161278a81336114ca565b156127e0576040517f08c379a000000000000000000000000000000000000000000000000000000000815260040180806020018281038252602e815260200180613c02602e913960400191505060405180910390fd5b8260006127ed8233613888565b11612843576040517f08c379a0000000000000000000000000000000000000000000000000000000008152600401808060200182810382526024815260200180613d096024913960400191505060405180910390fd5b8361284d81611fe4565b6128bf576040517f08c379a00000000000000000000000000000000000000000000000000000000081526004018080602001828103825260158152602001807f506c61796572203120686173206e6f7420776f6e2e000000000000000000000081525060200191505060405180910390fd5b60006128ca866134ba565b905060006129046128da88611984565b6128f66128e78a33613888565b8561396b90919063ffffffff16565b6139f190919063ffffffff16565b90503373ffffffffffffffffffffffffffffffffffffffff166108fc829081150290604051600060405180830381858888f1935050505015801561294c573d6000803e3d6000fd5b5060016004600089815260200190815260200160002060003373ffffffffffffffffffffffffffffffffffffffff1673ffffffffffffffffffffffffffffffffffffffff16815260200190815260200160002060006101000a81548160ff0219169083151502179055507f87d3348e76f7c90e52e613d5cec8a0af2ffcb9f3b2acd05c2d39f0f7b93124b08733836001604051808581526020018473ffffffffffffffffffffffffffffffffffffffff1673ffffffffffffffffffffffffffffffffffffffff1681526020018381526020018260ff16815260200194505050505060405180910390a150505050505050565b6000600480811115612a4c57fe5b60008084815260200190815260200160002060070160009054906101000a900460ff166004811115612a7a57fe5b149050919050565b80612a8d8133612068565b612ae2576040517f08c379a0000000000000000000000000000000000000000000000000000000008152600401808060200182810382526029815260200180613baf6029913960400191505060405180910390fd5b600460008084815260200190815260200160002060070160006101000a81548160ff02191690836004811115612b1457fe5b02179055507f2ef65fd406711d61818757b2dc79533a4eacd72eb700b63ee84a30b11ed37a52826002604051808381526020018260ff1681526020019250505060405180910390a15050565b612b75600180546138e390919063ffffffff16565b6001819055506040518061018001604052808981526020018881526020018773ffffffffffffffffffffffffffffffffffffffff1681526020018673ffffffffffffffffffffffffffffffffffffffff1681526020013373ffffffffffffffffffffffffffffffffffffffff1681526020018560ff1681526020018460ff16815260200183815260200182815260200160016004811115612c1257fe5b81526020016000815260200160008152506000806001548152602001908152602001600020600082015181600001556020820151816001015560408201518160020160006101000a81548173ffffffffffffffffffffffffffffffffffffffff021916908373ffffffffffffffffffffffffffffffffffffffff16021790555060608201518160030160006101000a81548173ffffffffffffffffffffffffffffffffffffffff021916908373ffffffffffffffffffffffffffffffffffffffff16021790555060808201518160040160006101000a81548173ffffffffffffffffffffffffffffffffffffffff021916908373ffffffffffffffffffffffffffffffffffffffff16021790555060a08201518160040160146101000a81548160ff021916908360ff16021790555060c08201518160040160156101000a81548160ff021916908360ff16021790555060e0820151816005019080519060200190612d7e929190613b09565b50610100820151816006019080519060200190612d9c929190613b09565b506101208201518160070160006101000a81548160ff02191690836004811115612dc257fe5b0217905550610140820151816008015561016082015181600901559050507fc55ec2fce9f231be8fced9846c24a34c711f151284d2052fb410b5b1c1a5d23c60015489898989338a8a8a8a604051808b81526020018a81526020018981526020018873ffffffffffffffffffffffffffffffffffffffff1673ffffffffffffffffffffffffffffffffffffffff1681526020018773ffffffffffffffffffffffffffffffffffffffff1673ffffffffffffffffffffffffffffffffffffffff1681526020018673ffffffffffffffffffffffffffffffffffffffff1673ffffffffffffffffffffffffffffffffffffffff1681526020018560ff1660ff1681526020018460ff1660ff1681526020018060200180602001838103835285818151815260200191508051906020019080838360005b83811015612f11578082015181840152602081019050612ef6565b50505050905090810190601f168015612f3e5780820380516001836020036101000a031916815260200191505b50838103825284818151815260200191508051906020019080838360005b83811015612f77578082015181840152602081019050612f5c565b50505050905090810190601f168015612fa45780820380516001836020036101000a031916815260200191505b509c5050505050505050505050505060405180910390a15050505050505050565b60076020528060005260406000206000915054906101000a900460ff1681565b600080600083815260200190815260200160002060040160149054906101000a900460ff1660ff169050919050565b60056020528160005260406000206020528060005260406000206000915091509054906101000a900460ff1681565b60006020528060005260406000206000915090508060000154908060010154908060020160009054906101000a900473ffffffffffffffffffffffffffffffffffffffff16908060030160009054906101000a900473ffffffffffffffffffffffffffffffffffffffff16908060040160009054906101000a900473ffffffffffffffffffffffffffffffffffffffff16908060040160149054906101000a900460ff16908060040160159054906101000a900460ff1690806005018054600181600116156101000203166002900480601f0160208091040260200160405190810160405280929190818152602001828054600181600116156101000203166002900480156131935780601f1061316857610100808354040283529160200191613193565b820191906000526020600020905b81548152906001019060200180831161317657829003601f168201915b505050505090806006018054600181600116156101000203166002900480601f0160208091040260200160405190810160405280929190818152602001828054600181600116156101000203166002900480156132315780601f1061320657610100808354040283529160200191613231565b820191906000526020600020905b81548152906001019060200180831161321457829003601f168201915b5050505050908060070160009054906101000a900460ff1690806008015490806009015490508c565b60006008600083815260200190815260200160002060009054906101000a900460ff169050919050565b8061328e81611e0b565b6132e3576040517f08c379a0000000000000000000000000000000000000000000000000000000008152600401808060200182810382526039815260200180613c756039913960400191505060405180910390fd5b816132ed816119a3565b15613360576040517f08c379a000000000000000000000000000000000000000000000000000000000815260040180806020018281038252601b8152602001807f486f73742068617320616c726561647920636173686564206f7574000000000081525060200191505060405180910390fd5b8261336b8133612068565b6133c0576040517f08c379a0000000000000000000000000000000000000000000000000000000008152600401808060200182810382526029815260200180613baf6029913960400191505060405180910390fd5b60006133cb856121d2565b90503373ffffffffffffffffffffffffffffffffffffffff166108fc829081150290604051600060405180830381858888f19350505050158015613413573d6000803e3d6000fd5b5060016006600087815260200190815260200160002060006101000a81548160ff0219169083151502179055507fd29da2ab5f029042896fc2fd556a53b40170d750e63e36befdde9fe0c844e959853383604051808481526020018373ffffffffffffffffffffffffffffffffffffffff1673ffffffffffffffffffffffffffffffffffffffff168152602001828152602001935050505060405180910390a15050505050565b6000806134fa60008085815260200190815260200160002060090154600080868152602001908152602001600020600801546138e390919063ffffffff16565b90506000613549606461353b60008088815260200190815260200160002060040160159054906101000a900460ff1660ff168561396b90919063ffffffff16565b6139f190919063ffffffff16565b90506000613598606461358a60008089815260200190815260200160002060040160149054906101000a900460ff1660ff168661396b90919063ffffffff16565b6139f190919063ffffffff16565b90506135bf816135b18486613a8090919063ffffffff16565b613a8090919063ffffffff16565b9350505050919050565b806135d381611e0b565b613628576040517f08c379a0000000000000000000000000000000000000000000000000000000008152600401808060200182810382526039815260200180613c756039913960400191505060405180910390fd5b816136328161195a565b156136a5576040517f08c379a000000000000000000000000000000000000000000000000000000000815260040180806020018281038252601f8152602001807f506c6179657220312068617320616c726561647920636173686564206f75740081525060200191505060405180910390fd5b826136b0813361188e565b613705576040517f08c379a000000000000000000000000000000000000000000000000000000000815260040180806020018281038252602d815260200180613cdc602d913960400191505060405180910390fd5b8361370f81611fe4565b613781576040517f08c379a00000000000000000000000000000000000000000000000000000000081526004018080602001828103825260158152602001807f506c61796572203120686173206e6f7420776f6e2e000000000000000000000081525060200191505060405180910390fd5b600061378c866118fc565b90503373ffffffffffffffffffffffffffffffffffffffff166108fc829081150290604051600060405180830381858888f193505050501580156137d4573d6000803e3d6000fd5b5060016007600088815260200190815260200160002060006101000a81548160ff0219169083151502179055507f19570f66c72204bf4894b61c2c987a7e607c3fae1d725781ceadff4a0d8deb008633600184604051808581526020018473ffffffffffffffffffffffffffffffffffffffff1673ffffffffffffffffffffffffffffffffffffffff1681526020018360ff16815260200182815260200194505050505060405180910390a1505050505050565b60006002600084815260200190815260200160002060008373ffffffffffffffffffffffffffffffffffffffff1673ffffffffffffffffffffffffffffffffffffffff16815260200190815260200160002054905092915050565b600080828401905083811015613961576040517f08c379a000000000000000000000000000000000000000000000000000000000815260040180806020018281038252601b8152602001807f536166654d6174683a206164646974696f6e206f766572666c6f77000000000081525060200191505060405180910390fd5b8091505092915050565b60008083141561397e57600090506139eb565b600082840290508284828161398f57fe5b04146139e6576040517f08c379a0000000000000000000000000000000000000000000000000000000008152600401808060200182810382526021815260200180613c306021913960400191505060405180910390fd5b809150505b92915050565b6000808211613a68576040517f08c379a000000000000000000000000000000000000000000000000000000000815260040180806020018281038252601a8152602001807f536166654d6174683a206469766973696f6e206279207a65726f00000000000081525060200191505060405180910390fd5b6000828481613a7357fe5b0490508091505092915050565b600082821115613af8576040517f08c379a000000000000000000000000000000000000000000000000000000000815260040180806020018281038252601e8152602001807f536166654d6174683a207375627472616374696f6e206f766572666c6f77000081525060200191505060405180910390fd5b600082840390508091505092915050565b828054600181600116156101000203166002900490600052602060002090601f016020900481019282601f10613b4a57805160ff1916838001178555613b78565b82800160010185558215613b78579182015b82811115613b77578251825591602001919060010190613b5c565b5b509050613b859190613b89565b5090565b613bab91905b80821115613ba7576000816000905550600101613b8f565b5090565b9056fe596f752068617665206e6f742074686520686f7374206f662074686973206d6f6e6579206d61746368506c617965722073656c656374656420697320696e76616c69642c20706c656173652031206f7220322e426574746f722068617320616c726561647920636173686564206f75742068697320706c61796572203120626574536166654d6174683a206d756c7469706c69636174696f6e206f766572666c6f77596f752068617665206e6f206265747320706c6163656420666f7220706c617965722032436173686f75742069732063757272656e746c7920636c6f73656420666f72207468652073656c6563746564206d6f6e6579206d617463682e426574746f722068617320616c726561647920636173686564206f75742068697320706c61796572203220626574596f752068617665206e6f742074686520706c617965722031206f662074686973206d6f6e6579206d61746368596f752068617665206e6f206265747320706c6163656420666f7220706c61796572203142657473206172652063757272656e746c7920636c6f73656420666f72207468652073656c6563746564206d6f6e6579206d617463682e596f752068617665206e6f742074686520706c617965722032206f662074686973206d6f6e6579206d61746368a165627a7a7230582056b75fc8f80cb6911e13598b068c453575c17632edbb43802a7df29bb9cb40360029",
  "source": "pragma solidity ^0.5.0;\nimport \"client/node_modules/openzeppelin-solidity/contracts/math/SafeMath.sol\";\n\ncontract SimpleStorage {\n  using SafeMath for uint256;\n\n  // Structs\n  struct MoneyMatch\n  {\n    bytes32 player1_name;\n    bytes32 player2_name;\n    address player1_addr;\n    address player2_addr;\n    address host_addr;\n    uint8 winner_cut_percentage;\n    uint8 host_cut_percentage;\n    string summary;\n    string image_ipfs_hash;\n    MoneyMatchState state;\n    uint256 player1_pot;\n    uint256 player2_pot;\n  }\n\n  // Events\n  event MoneyMatchCreated\n  (\n    uint256 id,\n    bytes32 player1_name,\n    bytes32 player2_name,\n    address player1_addr,\n    address player2_addr,\n    address host_addr,\n    uint8 winner_cut_percentage,\n    uint8 host_cut_percentage,\n    string summary,\n    string image_ipfs_hash\n  );\n\n  event BetSubmitted\n  (\n    uint256 money_match_id,\n    address bettor,\n    uint256 amount,\n    uint8 player\n  );\n\n  event BetCashout\n  (\n    uint256 money_match_id,\n    address bettor,\n    uint256 amount,\n    uint8 player\n  );\n\n  event HostCashout\n  (\n    uint256 money_match_id,\n    address host_addr,\n    uint256 amount\n  );\n\n  event PlayerCashout\n  (\n    uint256 money_match_id,\n    address player_addr,\n    uint8 player,\n    uint256 amount\n  );\n\n  event BetsClosed\n  (\n    uint256 money_match_id\n  );\n\n  event MoneyMatchFinished\n  (\n    uint256 money_match_id,\n    uint8 player_won\n  );\n\n  // Enums\n  enum MoneyMatchState { Undefined, BetsOpen, BetsClosed, Player1Wins, Player2Wins }\n  mapping(uint256 => MoneyMatch) public money_matches; // Stores money matches data\n  uint256 public money_match_count; // Helps generating a new money match id\n  mapping(uint256 => mapping(address => uint256)) public player1_bets; // maps[money match][bettor][bet]\n  mapping(uint256 => mapping(address => uint256)) public player2_bets; // maps[money match][bettor][bet]\n  mapping(uint256 => mapping(address => bool)) public has_cashed_out_player1_bet; // Helps preventing double cash out\n  mapping(uint256 => mapping(address => bool)) public has_cashed_out_player2_bet; // maps[money_match_id][has_cashed_out]\n  mapping(uint256 => bool) public host_has_cashed_out; // maps[money_match_id][has_cashed_out]\n  mapping(uint256 => bool) public player1_has_cashed_out;\n  mapping(uint256 => bool) public player2_has_cashed_out;\n\n  // Read only functions\n  function getPlayer1Name(uint256 money_match_id) public view returns (bytes32) {\n    return money_matches[money_match_id].player1_name;\n  }\n\n  function getPlayer2Name(uint256 money_match_id) public view returns (bytes32) {\n    return money_matches[money_match_id].player2_name;\n  }\n\n  function getSummary(uint256 money_match_id) public view returns (string memory) {\n    return money_matches[money_match_id].summary;\n  }\n\n  function getImageIPFSHash(uint256 money_match_id) public view returns (string memory) {\n    return money_matches[money_match_id].image_ipfs_hash;\n  }\n\n  function getPlayer1Pot(uint256 money_match_id) public view returns (uint) {\n    return money_matches[money_match_id].player1_pot;\n  }\n\n  function getPlayer2Pot(uint256 money_match_id) public view returns (uint) {\n    return money_matches[money_match_id].player2_pot;\n  }\n\n  function getCutFreePot(uint256 money_match_id) public view returns (uint) {\n    uint256 total_pot = money_matches[money_match_id].player1_pot.\n                        add(money_matches[money_match_id].player2_pot);\n    uint256 host_cut = total_pot.\n                        mul(money_matches[money_match_id].host_cut_percentage).\n                        div(100);\n    uint256 winner_cut = total_pot.\n                        mul(money_matches[money_match_id].winner_cut_percentage).\n                        div(100);\n    return total_pot.sub(host_cut).sub(winner_cut);\n  }\n\n  function getPlayer1BetByAddress(uint256 money_match_id, address bettor) public view returns (uint) {\n    return player1_bets[money_match_id][bettor];\n  }\n\n  function getPlayer2BetByAddress(uint256 money_match_id, address bettor) public view returns (uint) {\n    return player2_bets[money_match_id][bettor];\n  }\n\n  function getHostCutPercentage(uint256 money_match_id) public view returns (uint) {\n    return money_matches[money_match_id].host_cut_percentage;\n  }\n\n  function getWinnerCutPercentage(uint256 money_match_id) public view returns (uint) {\n    return money_matches[money_match_id].winner_cut_percentage;\n  }\n\n  function getHostCut(uint256 money_match_id) public view returns (uint) {\n    uint256 total_pot = getPlayer1Pot(money_match_id).add(getPlayer2Pot(money_match_id));\n    return total_pot.mul(getHostCutPercentage(money_match_id)).div(100);\n  }\n\n  function getWinnerCut(uint256 money_match_id) public view returns (uint) {\n    uint256 total_pot = getPlayer1Pot(money_match_id).add(getPlayer2Pot(money_match_id));\n    return total_pot.mul(getWinnerCutPercentage(money_match_id)).div(100);\n  }\n\n  function isBetsOpen(uint256 money_match_id) public view returns (bool) {\n    return money_matches[money_match_id].state == MoneyMatchState.BetsOpen;\n  }\n\n  function isCashoutEnabled(uint256 money_match_id) public view returns (bool) {\n    return money_matches[money_match_id].state == MoneyMatchState.Player1Wins ||\n            money_matches[money_match_id].state == MoneyMatchState.Player2Wins;\n  }\n\n  function isPlayer1Wins(uint256 money_match_id) public view returns (bool) {\n    return money_matches[money_match_id].state == MoneyMatchState.Player1Wins;\n  }\n\n  function isPlayer2Wins(uint256 money_match_id) public view returns (bool) {\n    return money_matches[money_match_id].state == MoneyMatchState.Player2Wins;\n  }\n\n  function isAddressHost(uint256 money_match_id, address addr) public view returns (bool) {\n    return money_matches[money_match_id].host_addr == addr;\n  }\n\n  function isAddressPlayer1(uint256 money_match_id, address addr) public view returns (bool) {\n    return money_matches[money_match_id].player1_addr == addr;\n  }\n\n  function isAddressPlayer2(uint256 money_match_id, address addr) public view returns (bool) {\n    return money_matches[money_match_id].player2_addr == addr;\n  }\n\n  function hasCashedOutPlayer1Bet(uint256 money_match_id, address addr) public view returns (bool) {\n    return has_cashed_out_player1_bet[money_match_id][addr];\n  }\n\n  function hasCashedOutPlayer2Bet(uint256 money_match_id, address addr) public view returns (bool) {\n    return has_cashed_out_player2_bet[money_match_id][addr];\n  }\n\n  function hasHostCashedOut(uint256 money_match_id) public view returns (bool) {\n    return host_has_cashed_out[money_match_id];\n  }\n\n  function hasPlayer1CashedOut(uint256 money_match_id) public view returns (bool) {\n    return player1_has_cashed_out[money_match_id];\n  }\n\n  function hasPlayer2CashedOut(uint256 money_match_id) public view returns (bool) {\n    return player2_has_cashed_out[money_match_id];\n  }\n\n  // Modifiers\n  modifier betsAreOpen(uint256 money_match_id) {\n    require(isBetsOpen(money_match_id), \"Bets are currently closed for the selected money match.\");\n    _;\n  }\n\n  modifier cashoutIsEnabled(uint256 money_match_id) {\n    require(isCashoutEnabled(money_match_id), \"Cashout is currently closed for the selected money match.\");\n    _;\n  }\n\n  modifier player1Won(uint256 money_match_id) {\n    require(isPlayer1Wins(money_match_id), \"Player 1 has not won.\");\n    _;\n  }\n\n  modifier player2Won(uint256 money_match_id) {\n    require(isPlayer2Wins(money_match_id), \"Player 2 has not won.\");\n    _;\n  }\n\n  modifier playerIsValid(uint8 player) {\n    require(player == 1 || player == 2, \"Player selected is invalid, please 1 or 2.\");\n    _;\n  }\n\n  modifier hasNotCashedOutPlayer1Bet(uint256 money_match_id)\n  {\n    require(!hasCashedOutPlayer1Bet(money_match_id,msg.sender), \"Bettor has already cashed out his player 1 bet\");\n    _;\n  }\n\n  modifier hasNotCashedOutPlayer2Bet(uint256 money_match_id)\n  {\n    require(!hasCashedOutPlayer2Bet(money_match_id,msg.sender), \"Bettor has already cashed out his player 2 bet\");\n    _;\n  }\n\n  modifier hostHasNotCashedOut(uint256 money_match_id)\n  {\n    require(!hasHostCashedOut(money_match_id), \"Host has already cashed out\");\n    _;\n  }\n\n  modifier player1HasNotCashedOut(uint256 money_match_id)\n  {\n    require(!hasPlayer1CashedOut(money_match_id), \"Player 1 has already cashed out\");\n    _;\n  }\n\n  modifier player2HasNotCashedOut(uint256 money_match_id)\n  {\n    require(!hasPlayer2CashedOut(money_match_id), \"Player 2 has already cashed out\");\n    _;\n  }\n\n  modifier hasBettedForPlayer1(uint256 money_match_id)\n  {\n    require(getPlayer1BetByAddress(money_match_id, msg.sender) > 0, \"You have no bets placed for player 1\");\n    _;\n  }\n\n  modifier hasBettedForPlayer2(uint256 money_match_id)\n  {\n    require(getPlayer2BetByAddress(money_match_id, msg.sender) > 0, \"You have no bets placed for player 2\");\n    _;\n  }\n\n  modifier isHost(uint256 money_match_id)\n  {\n    require(isAddressHost(money_match_id,msg.sender), \"You have not the host of this money match\");\n    _;\n  }\n\n  modifier isPlayer1(uint256 money_match_id)\n  {\n    require(isAddressPlayer1(money_match_id,msg.sender), \"You have not the player 1 of this money match\");\n    _;\n  }\n\n  modifier isPlayer2(uint256 money_match_id)\n  {\n    require(isAddressPlayer2(money_match_id,msg.sender), \"You have not the player 2 of this money match\");\n    _;\n  }\n\n  // Write functions\n  function createMoneyMatch (\n    bytes32 player1_name,\n    bytes32 player2_name,\n    address player1_addr,\n    address player2_addr,\n    uint8 winner_cut_percentage,\n    uint8 host_cut_percentage,\n    string memory summary,\n    string memory image_ipfs_hash\n  ) public {\n    money_match_count = money_match_count.add(1);\n    money_matches[money_match_count] = MoneyMatch(\n      player1_name,\n      player2_name,\n      player1_addr,\n      player2_addr,\n      msg.sender,\n      winner_cut_percentage,\n      host_cut_percentage,\n      summary,\n      image_ipfs_hash,\n      MoneyMatchState.BetsOpen,\n      0,\n      0\n    );\n\n    emit MoneyMatchCreated (\n      money_match_count,\n      player1_name,\n      player2_name,\n      player1_addr,\n      player2_addr,\n      msg.sender,\n      winner_cut_percentage,\n      host_cut_percentage,\n      summary,\n      image_ipfs_hash\n    );\n  }\n\n  function bet(\n    uint256 money_match_id,\n    uint8 player\n  ) public payable\n    betsAreOpen(money_match_id)\n    playerIsValid(player)\n  {\n    if(player == 1)\n    {\n      player1_bets[money_match_id][msg.sender] = player1_bets[money_match_id][msg.sender].add(msg.value);\n      money_matches[money_match_id].player1_pot = money_matches[money_match_id].player1_pot.add(msg.value);\n    }\n    if(player == 2)\n    {\n      player2_bets[money_match_id][msg.sender] = player2_bets[money_match_id][msg.sender].add(msg.value);\n      money_matches[money_match_id].player2_pot = money_matches[money_match_id].player2_pot.add(msg.value);\n    }\n\n    emit BetSubmitted (\n      money_match_id,\n      msg.sender,\n      msg.value,\n      player\n    );\n  }\n\n  function cashOutPlayer1Bet(\n    uint256 money_match_id\n  ) public\n    cashoutIsEnabled(money_match_id)\n    hasNotCashedOutPlayer1Bet(money_match_id)\n    hasBettedForPlayer1(money_match_id)\n    player1Won(money_match_id)\n  {\n    uint256 cut_free_pot = getCutFreePot(money_match_id);\n    uint256 my_cashout = cut_free_pot.mul(getPlayer1BetByAddress(money_match_id, msg.sender)).div(getPlayer1Pot(money_match_id));\n    msg.sender.transfer(my_cashout);\n    has_cashed_out_player1_bet[money_match_id][msg.sender] = true;\n\n    emit BetCashout (\n      money_match_id,\n      msg.sender,\n      my_cashout,\n      1\n    );\n  }\n\n  function cashOutPlayer2Bet(\n    uint256 money_match_id\n  ) public\n    cashoutIsEnabled(money_match_id)\n    hasNotCashedOutPlayer2Bet(money_match_id)\n    hasBettedForPlayer2(money_match_id)\n    player2Won(money_match_id)\n  {\n    uint256 cut_free_pot = getCutFreePot(money_match_id);\n    uint256 my_cashout = cut_free_pot.mul(getPlayer2BetByAddress(money_match_id, msg.sender)).div(getPlayer2Pot(money_match_id));\n    msg.sender.transfer(my_cashout);\n    has_cashed_out_player2_bet[money_match_id][msg.sender] = true;\n\n    emit BetCashout (\n      money_match_id,\n      msg.sender,\n      my_cashout,\n      2\n    );\n  }\n\n  function cashOutHost(\n    uint256 money_match_id\n  ) public\n    cashoutIsEnabled(money_match_id)\n    hostHasNotCashedOut(money_match_id)\n    isHost(money_match_id)\n  {\n    uint256 my_cashout = getHostCut(money_match_id);\n    msg.sender.transfer(my_cashout);\n    host_has_cashed_out[money_match_id] = true;\n\n    emit HostCashout\n    (\n      money_match_id,\n      msg.sender,\n      my_cashout\n    );\n  }\n\n  function cashOutPlayer1(\n    uint256 money_match_id\n  ) public\n    cashoutIsEnabled(money_match_id)\n    player1HasNotCashedOut(money_match_id)\n    isPlayer1(money_match_id)\n    player1Won(money_match_id)\n  {\n    uint256 my_cashout = getWinnerCut(money_match_id);\n    msg.sender.transfer(my_cashout);\n    player1_has_cashed_out[money_match_id] = true;\n\n    emit PlayerCashout (\n      money_match_id,\n      msg.sender,\n      1,\n      my_cashout\n    );\n  }\n\n  function cashOutPlayer2(\n    uint256 money_match_id\n  ) public\n    cashoutIsEnabled(money_match_id)\n    player2HasNotCashedOut(money_match_id)\n    isPlayer2(money_match_id)\n    player2Won(money_match_id)\n  {\n    uint256 my_cashout = getWinnerCut(money_match_id);\n    msg.sender.transfer(my_cashout);\n    player2_has_cashed_out[money_match_id] = true;\n\n    emit PlayerCashout (\n      money_match_id,\n      msg.sender,\n      2,\n      my_cashout\n    );\n  }\n\n  function closeBets(uint256 money_match_id) public isHost(money_match_id) {\n    money_matches[money_match_id].state = MoneyMatchState.BetsClosed;\n\n    emit BetsClosed (\n      money_match_id\n    );\n  }\n\n  function player1Wins(uint256 money_match_id) public isHost(money_match_id) {\n    money_matches[money_match_id].state = MoneyMatchState.Player1Wins;\n\n    emit MoneyMatchFinished (\n      money_match_id,\n      1\n    );\n  }\n\n  function player2Wins(uint256 money_match_id) public isHost(money_match_id) {\n    money_matches[money_match_id].state = MoneyMatchState.Player2Wins;\n\n    emit MoneyMatchFinished (\n      money_match_id,\n      2\n    );\n  }\n}\n",
  "sourcePath": "/home/turupawn/Projects/Dapps/MoneyMatches/contracts/SimpleStorage.sol",
  "compiler": {
    "name": "solc",
    "version": "0.5.8+commit.23d335f2.Emscripten.clang"
  },
  "schemaVersion": "3.0.10",
  "updatedAt": "2019-08-08T05:32:56.817Z",
  "devdoc": {
    "methods": {}
  },
  "userdoc": {
    "methods": {}
  }
}